:100000000C9472030C94B9030C94B9030C94B903C7
:100010000C94B9030C94B9030C94B9030C94B90370
:100020000C94B9030C94B9030C94E2230C94B524FA
:100030000C94F51A0C94B9030C94B9030C94B903FD
:100040000C94B9030C94B9030C94B9030C94B90340
:100050000C94B9030C94561B0C94B9030C94B9037B
:100060000C94B9030C94B9030C94B9030C94B90320
:100070000C94B9030C94B9030C94B9030C94B90310
:100080000C94B9030C94B9030C94B9030C94B90300
:100090000C94B9030C94B9030C94B9030C94B903F0
:1000A0000C94B9030C94B9030C94B9035300540095
:1000B000550056005F006000610057005C005D0065
:1000C0005E00000059005A005B005800620000000A
:1000D00063000000010001000100010001000100B7
:1000E0000100010001000100010000000100010009
:1000F00001000100010000000100000001000100FA
:1001000001000100010001000100010001000100E7
:1001100001000000010001000100010001000000D9
:1001200001000000010001000100010001000100C8
:1001300001000100010001000100000001000100B8
:1001400001000100010000000100000001000100A9
:100150000100010001000100010001000100010097
:100160000100000001000100010001000100000089
:100170000100000001000100010001000100010078
:100180000100010001000100010000000100010068
:100190000100010001000000010000000100010059
:1001A0000100010001000100010001000100010047
:1001B0000100000001000100010001000100000039
:1001C0000100000001000100010001000100010028
:1001D0000100010001000100010000000100010018
:1001E0000100010001000000010000000100010009
:1001F00001000100010001000100010001000100F7
:1002000001000000010001000100010001000000E8
:1002100001000000010001000100010001000100D7
:1002200001000100010001000100000001000100C7
:1002300001000100010000000100000001000100B8
:1002400001000100010001000100010001000100A6
:100250000100000001000100010001000100000098
:100260000100000001000100010001000100010087
:100270000100010001000100010000000100010077
:100280000100010001000000010000000100010068
:100290000100010001000100010001000100010056
:1002A0000100000001000100010001000100000048
:1002B0000100000001000100010001000100010037
:1002C0000100010001000100010000000100010027
:1002D0000100010001000000010000000100010018
:1002E0000100010001000100010001000100010006
:1002F00001000000010001000100010001000000F8
:1003000001000000010001000100010001000100E6
:1003100001000100010001000100000001000100D6
:1003200001000100010000000100000064321464BB
:100330003214783C1E1E140A050000000001010161
:100340000202030405050607090A0B0C0E0F111221
:10035000141517191B1D1F212325282A2C2F313472
:1003600036393B3E414346494C4F5255585A5D61E0
:1003700064676A6D707376797C7F8386898C8F92CF
:1003800095989B9EA2A5A7AAADB0B3B6B9BCBEC1B5
:10039000C4C6C9CBCED0D3D5D7DADCDEE0E2E4E602
:1003A000E8EAEBEDEEF0F1F3F4F5F6F8F9FAFAFB22
:1003B000FCFDFDFEFEFEFFFFFFFFFFFFFFFEFEFE5A
:1003C000FDFDFCFBFAFAF9F8F6F5F4F3F1F0EEEDC9
:1003D000EBEAE8E6E4E2E0DEDCDAD7D5D3D0CECB58
:1003E000C9C6C4C1BEBCB9B6B3B0ADAAA7A5A29ECA
:1003F0009B9895928F8C898683807C797673706DBB
:100400006A6764615D5A5855524F4C494643413EB4
:100410003B393634312F2C2A282523211F1D1B1947
:1004200017151412110F0E0C0B0A09070605050407
:1004300003020201010100000000000000000101B0
:100440000101010101010102020202020202020293
:100450000303030303030303040404040404050562
:100460000505050606060606070707070808080823
:100470000909090A0A0A0A0B0B0B0C0C0C0D0D0DCD
:100480000E0E0F0F0F10101111111212131314145E
:10049000151516161717181819191A1A1B1C1C1DD2
:1004A0001D1E1F1F20202122222324252526272729
:1004B00028292A2B2B2C2D2E2F2F30313233343557
:1004C00036363738393A3B3C3D3E3F404142434463
:1004D000464748494A4B4C4D4F5051525355565739
:1004E000585A5B5C5E5F606263646667696A6C6DE4
:1004F0006E707173747678797B7C7E80818384865C
:10050000888A8B8D8F91929496989A9B9D9FA1A398
:10051000A5A7A9ABADAFB1B3B5B7B9BBBDBFC1C49A
:10052000C6C8CACCCFD1D3D6D8DADCDFE1E4E6E85E
:10053000EBEDF0F2F5F7FAFCFF12036B00650079C2
:100540000062006F00610072006400000016037119
:10055000006D006B006200750069006C006400654E
:1005600000720000000403090409026D0004010088
:10057000A0FA090400000103010100092111010092
:10058000012240000705810308000A090401000157
:1005900003010200092111010001224D000705821B
:1005A0000308000A090402000103000000092111E8
:1005B0000100012236000705830308000A0904032D
:1005C0000001030000000921110100012239000788
:1005D0000584032000011201100100000008EDFE57
:1005E000606001000102000105010906A101050783
:1005F00019E029E715002501950875018102050814
:10060000190129059505750191029501750391015F
:100610000507190029F71500250195F875018102D4
:10062000C005010980A10185021601002603001AF8
:1006300081002A8300751095018100C0050C090115
:10064000A1018503160100269C021A01002A9C02C2
:10065000751095018100C005010902A1010901A1E0
:100660000005091901290515002501950575018168
:1006700002950175038101050109300931158125B4
:100680007F95027508810609381581257F950175CA
:10069000088106050C0A38021581257F9501750829
:1006A0008106C0C005010906A101050719E029E777
:1006B00015002501950875018102950175088101D4
:1006C0000508190129059505750191029501750324
:1006D00091010507190029FF150026FF00950675F1
:1006E000088100C011241FBECFEFDAE0DEBFCDBF0E
:1006F00004B603FE27C08091640290916502A09128
:100700006602B09167028730904BA740B04BD1F49E
:1007100010926402109265021092660210926702B3
:1007200014BE84B7877F84BF0FB6F894A8958091D4
:100730006000886180936000109260000FBEE0E06E
:10074000F8E3099511E0A0E0B1E0EAE7F0E502C0C6
:1007500005900D92A233B107D9F722E0A2E3B1E0F0
:1007600001C01D92A436B207E1F70E9436210C9415
:1007700006280C94000090E080E008950895089504
:1007800081E00895089581E008950C94C0030E94CB
:1007900042132FEF84E39CE0215080409040E1F72A
:1007A00000C000000C94791BEF92FF920F931F93EF
:1007B000CF93DF937C01DC010D911C911197809107
:1007C0007401811143C012968C918823D1F1C80124
:1007D0000E94C518C82F682FC8010E947018B80160
:1007E0008C2F0E943F05EC01B7010E94C5038823AE
:1007F00009F468C0B701CE010E944807882309F4B4
:1008000061C0CE33B0E7DB0770F4C433E0E7DE0746
:1008100010F5C130F0E7DF0709F45CC050F5C115F1
:10082000D04709F44AC081E08093340180933501B8
:10083000C701DF91CF911F910F91FF90EF900C9422
:10084000C303C8010E949D18C82FC9CFC8010E94C8
:10085000C518B801C6CFFE01E553F047D70112967F
:100860008C91E930F10508F040C0E85FF74D0C9439
:10087000B827CE01825090474397A8F6F7018281AE
:100880008823B1F20E94871A811102C00E94661A61
:100890000E94A41A90E09093560280935502FE01A4
:1008A000E350F047809155028160E231F10508F094
:1008B00047C0EF5EF74D0C94B827F7018281811194
:1008C0000E94C70380E0DF91CF911F910F91FF90AD
:1008D000EF900895D70112968C91882399F3809117
:1008E000E90181608093E901EDCF882359F30E94EB
:1008F000930BE8CF882331F30E94890BE3CF882341
:1009000009F30E94660ADECF8823E1F20E947E0A84
:10091000D9CF8823B9F20E949D0AD4CF882391F2BF
:100920000E94B50ACFCF882369F20E94CD0ACACFB0
:10093000882341F20E94E50AC5CF8091550282606A
:1009400080935502809155020E94A81A0E9442137A
:10095000B9CF809155028460F3CF809155028860B1
:10096000EFCF809155028061EBCF8091550280627C
:10097000E7CF809155028064E3CF80915502806873
:10098000DFCF809155028C60DBCF809155028E7F46
:10099000D7CF809155028D7FD3CF809155028B7F29
:1009A000CFCF80915502877FCBCF809155028F7E2C
:1009B000C7CF809155028F7DC3CF809155028F7B29
:1009C000BFCF809155028F77BBCF80915502837F37
:1009D000B7CF90915502892F97FB87F98058B0CFF8
:1009E000882361F0109234010E94251B90933301FB
:1009F0008093320182E00E94A71064CF809134017D
:100A000081110FC080913201909133010E94311BFE
:100A1000883C910530F486E20E947C0F86E20E94B9
:100A2000581082E00E94AE104DCF882351F01092F2
:100A300035010E94251B909333018093320180E29F
:100A4000DACF8091350181110FC0809132019091F0
:100A500033010E94311B883C910530F487E20E94EB
:100A60007C0F87E20E94581080E2DCCF0C9497073D
:100A70000C9499070C94C2030C943A050895E72F3F
:100A8000F0E095E0899FE00DF11D1124EE0FFF1FAE
:100A9000EE0FFF1FE60FF11DEE0FFF1FE455FF4F96
:100AA000859194910895FC01EE0FFF1FE45DFC4FCA
:100AB0008591949108950E943F050E94CC069C0167
:100AC000811540E4940708F097C0211580E33807AA
:100AD00008F0FAC0203E310508F074C0203C310512
:100AE00008F0E5C0283A310588F4253A310508F0C8
:100AF000E2C02130310509F477C0C9010497813A79
:100B0000910508F471C030E020E06EC0C901885A38
:100B100091094597C0F7283A310509F4FEC0293AF2
:100B2000310509F4FDC02A3A310509F4FCC02B3A1D
:100B3000310509F4FBC02C3A310509F4FAC02B3B0E
:100B4000310509F4F9C02C3B310509F4F8C02D3A00
:100B5000310509F4F7C0203B310509F4F6C02E3AFF
:100B6000310509F4F5C02F3A310509F4F4C0213BF1
:100B7000310509F4F3C0223B310509F4F2C0233BEF
:100B8000310509F4F1C0243B310509F4F0C0253BDF
:100B9000310509F4EFC0263B310509F4EEC0273BCF
:100BA000310509F4EDC0283B310509F4ECC0293BBF
:100BB000310509F4EBC02A3B310509F4EAC020E015
:100BC00034E412C0211590E2390780F42F3F31053B
:100BD00009F050F4283E310538F0C901805F9109D1
:100BE0003065409708F08FCFC9010895C9019F7003
:100BF0000E9453059C01F8CF8115944508F041C02F
:100C0000211583E5380708F06AC0211592E53907F8
:100C100038F5211541E5340708F05CC0211580E561
:100C2000380708F454C0C90134E0969587953A9581
:100C3000E1F78370422F46954695437090E2499FB5
:100C4000A0011124582B822F837021E030E002C0D4
:100C5000220F331F8A95E2F7242B352B3C68C4CF33
:100C6000C9018370992741E050E002C0440F551F2D
:100C70008A95E2F72695269580E2289F9001112417
:100C8000EBCF211596E5390748F4922F88272115D7
:100C90003545C8F59C01246F306AA6CFC90190562E
:100CA0003F708115904108F02ECF30629DCFC90171
:100CB000805C91099DCF253A310549F1263A3105ED
:100CC00049F522E830E490CF3327306C8DCF3F7068
:100CD000306A8ACF322F2227216F306A85CFC9012F
:100CE0008370992741E050E002C0440F551F8A9558
:100CF000E2F72695269580E2289F90011124242B67
:100D0000352B3A6871CF88279F719C01CECF21E89F
:100D100030E46ACF23E830E467CF22EE34E464CFD6
:100D200029EE34E461CF2AEE34E45ECF25EB34E4DF
:100D30005BCF26EB34E458CF23EB34E455CF24EBE0
:100D400034E452CF27EB34E44FCF2CEC34E44CCFD7
:100D50002DEC34E449CF23E835E446CF2AE835E4E6
:100D600043CF22E935E440CF24E935E43DCF21E209
:100D700036E43ACF23E236E437CF24E236E434CF08
:100D800025E236E431CF26E236E42ECF27E236E400
:100D90002BCF2AE236E428CF803E910581F1C8F4BA
:100DA0008133910509F462C048F48932910509F450
:100DB00056C08A32910509F460C0089589339105BF
:100DC000B9F082389105A1F08533910509F440C04E
:100DD0000895863E910561F138F4823E9105B1F0A7
:100DE000833E9105E1F00895873E910551F1089504
:100DF000209155022370D9F080EE90E00895209163
:100E0000550220FF14C089E390E008952091550217
:100E100022FF0DC024FD09C083EE90E008952091CB
:100E2000550222FD31C024FF02C090E080E0089509
:100E30002091550223FFFBCF24FDF7CF87EE90E0F2
:100E400008952091550223FFEECF86EE90E008959D
:100E50002091550225FFEBCF89E290E00895209183
:100E6000550225FFE4CF85E390E0089520915502D7
:100E700026FFDDCF8AE290E008952091550226FFFB
:100E8000D6CF81E390E0089582EE90E00895089532
:100E90000F931F93CF938C01FB018281811106C0B8
:100EA000C1E08C2FCF911F910F910895C091430104
:100EB000C11125C00531104799F70E94470781E00D
:100EC000809343010E94251B90934201809341012E
:100ED00010923601109238011092370110923A01A7
:100EE0001092390110923C0110923B0110923E0188
:100EF00010923D011092400110923F01D2CF80919B
:100F00004101909142010E94311B883C910540F6BD
:100F100080913601E82FF0E0EE0FFF1FE95CFE4FF5
:100F2000118300838F5F80933601C0E0BACF0C94A9
:100F3000BE030C94BF03CF93DF9385B7806885BF52
:100F400085B7806885BFA8E1B1E04DE151E0C1E01F
:100F5000D0E08D91E82FE295EF70F0E061A18F7005
:100F60009E0101C0220F8A95EAF7922F9095962351
:100F700091A382A1822B82A34A175B0751F7A4E1B8
:100F8000B1E061E070E08D91E82FE295EF70F0E064
:100F900041A18F709B0101C0220F8A95EAF7922F21
:100FA0009095942391A382A1822B82A381E0A83102
:100FB000B80749F7109249011092440110924A0172
:100FC0001092450110924B011092460110924C0173
:100FD0001092470110924D0110924801DF91CF917C
:100FE0000C9436056F927F928F929F92AF92BF9230
:100FF000CF92DF92EF92FF920F931F93CF93DF93E5
:1010000034E4632E31E0732E48E1E42E41E0F42E07
:1010100001E010E0DD24D394E301C9903E01DE013C
:101020001E92F70181917F01E82FE295EF70F0E0C9
:1010300091A18F70A80101C0440F8A95EAF7892F0A
:10104000842B81A382A1842E8094882182A380EAAC
:101050008A95F1F764E171E090E080E0EB0139916D
:10106000BE01A32EA2942FE0A222B12CE50128A15B
:101070009C903F70580101C0AA0C3A95EAF7A22251
:1010800020E031F4202F082E01C0220F0A94EAF745
:1010900029292C9301968430910501F781A188219B
:1010A00081A382A1482B42A38C91C81641F0D09213
:1010B0004E010E94251B9093500180934F01D9E46B
:1010C0006D16D1E07D0609F0A7CF80914E018823EF
:1010D000F1F080914F01909150010E94311B0697D1
:1010E000B0F0809144018093490180914501809343
:1010F0004A018091460180934B0180914701809382
:101100004C018091480180934D0110924E010E9444
:10111000380581E0DF91CF911F910F91FF90EF9003
:10112000DF90CF90BF90AF909F908F907F906F9007
:101130000895E82FF0E0E75BFE4F80810895089561
:101140009C01CB016BB1542F509556236BB1462BAC
:101150006FB7F894820F931F2817390711F46FBFE8
:101160000895F90171919F01E8E04BB9000000C0BA
:1011700077FF5BB9770F000000C000C000C05BB90B
:1011800000C0EA9591F7E8CFFC019AB1942B9AB987
:101190009B01220F331F620F731FCF010E94A00813
:1011A00087EC90E00197F1F700C00000089540E15E
:1011B0000C94C408AF92BF92CF92DF92EF92FF924D
:1011C0000F931F93CF93DF937C01E901842F242F8A
:1011D000662309F43FC0C42ED12C8FEF90E0861B0C
:1011E0009109489F8001499F100D1124212F812FC3
:1011F0009927C81AD90A9CE3A92EB12CC701B501B9
:101200000E949027FB01BC01C69EC001C79E900DA5
:10121000D69E900D1124B5010E949027E330F10570
:1012200009F443C080EFE816F10468F4E130F105F9
:1012300091F13297A1F18CE3E816F10440F180E0DE
:1012400020E040E007C0E430F10599F1842F861BCF
:101250003597A9F7E42FF0E0E75CFB4F4491E22FCC
:10126000F0E0E75CFB4F9491E82FF0E0E75CFB4F88
:10127000E49149839883EA83DF91CF911F910F9185
:10128000FF90EF90DF90CF90BF90AF900895812FA7
:10129000262F210FDFCF812F242F461BDBCF862F58
:1012A000810FE42F412F2E2FD5CFE42FE61B842F63
:1012B000F9CF842F462F410FCDCF88E090E00C94DA
:1012C000C627AB01BC0188E090E00C94E427CF93E3
:1012D000DF9300D000D0CDB7DEB7E6E1F2E083E0E7
:1012E000808311828FEF8283838380911602909195
:1012F0001702A0911802B091190289839A83AB83D7
:10130000BC83BC01CD010F900F900F900F90DF9127
:10131000CF910C94610980911602EEE1F2E080FF1A
:1013200006C061E170E08EE192E00C94D708118272
:1013300010821282339682E0E135F807C1F7F1CFCF
:10134000EEE1F2E0818360834283339692E0E135FF
:10135000F907C1F70C948B09EF92FF920F931F933B
:10136000CF93DF9300D00F92CDB7DEB7182FE92EC1
:10137000F62E042F8091160290911702A091180268
:10138000B091190280931A0290931B02A0931C0241
:10139000B0931D028091160280FF1FC09E012F5F37
:1013A0003F4F812F9E2D0E94DA0880911A0210FB78
:1013B00087F980931A02169580911B028078182B6A
:1013C000E0FA17F910931B02F0921C0200931D0221
:1013D0004B8169818A810E94A0090F900F900F9024
:1013E000DF91CF911F910F91FF90EF9008950F9390
:1013F0001F93CF93DF9300D000D00F92CDB7DEB70D
:1014000089839D83062F142F8091160280FF54C07C
:10141000982F9E77923091F589819D810E94AC0929
:1014200080911602B981B0FB87F980931602B695B8
:10143000809117028078B82B8D8180FBB7F9B0932B
:1014400017020093180210931902809116029091CE
:101450001702A0911802B091190289839A83AB8375
:10146000BC83BC01CD010F900F900F900F900F9097
:10147000DF91CF911F910F910C946109982F969550
:101480009F732EE3290F2F73243018F41091190243
:10149000C7CF965C9F73993018F6881F8827881FDE
:1014A000909117029D83990F982B9983AD81A7FB8B
:1014B000AA27A0F9AD83B4CF0F900F900F900F9093
:1014C0000F90DF91CF911F910F910895E6E1F2E027
:1014D0002081221F2227221F30911702432F440F01
:1014E000842F822B37FB992790F9089668E671E0E4
:1014F0000E94A427438162810C94F709209116026F
:10150000221F2227221F30911702432F440F842FBE
:10151000822B37FB992790F98830910540F4805A47
:101520009E4F40911902609118020C94F709089798
:1015300068E671E00E94A427F4CF60911802683F2A
:1015400090F4685F80911602881F8827881F909109
:101550001702292F220F97FB992790F94091190222
:10156000822B0C94F7096FEFEDCF60911802683071
:1015700090F0685080911602881F8827881F9091EC
:101580001702292F220F97FB992790F940911902F2
:10159000822B0C94F70960E0EDCF40911902483F8F
:1015A00090F4485F80911602881F8827881F9091C9
:1015B0001702292F220F97FB992790F960911802A3
:1015C000822B0C94F7094FEFEDCF40911902483070
:1015D00090F0485080911602881F8827881F9091AC
:1015E0001702292F220F97FB992790F96091180273
:1015F000822B0C94F70940E0EDCFCF93DF9300D01E
:1016000000D0CDB7DEB79091160290FF47C0917819
:10161000811132C0926090931602809116029091CF
:101620001702A0911802B091190289839A83AB83A3
:10163000BC83BC01CD010E94610980911602982FE4
:101640009E77923009F510926601881F8827881FBF
:1016500090911702292F220F97FB992790F940911B
:10166000190260911802822B0F900F900F900F902B
:10167000DF91CF910C94F709893110F09063CBCFB3
:101680008F73880F982BC7CF982F9695925C9F7376
:101690009631D8F691E090936601D7CF0F900F90D6
:1016A0000F900F90DF91CF9108958091E9018160B3
:1016B0008093E90181E0809367010E94871A81117C
:1016C00004C00E94661A0E9467090E945D09609327
:1016D00016027093170280931802909319026E7786
:1016E00061F40E9467090E945D096093160270937D
:1016F0001702809318029093190281E0809366018B
:101700008091160280FF04C086958F730C94FD0AA9
:1017100008958091160286958F738F5F893108F046
:1017200081E00C94FD0ACF93DF9300D000D0CDB7B9
:10173000DEB790911602892F8E7F90FF8160809393
:1017400016028091160290911702A0911802B09192
:10175000190289839A83AB83BC83BC01CD010E94AB
:1017600061098091160280FF0AC086958F730F90E1
:101770000F900F900F90DF91CF910C94FD0A109273
:1017800066019FEFA0E7B2E09150A040B040E1F7C2
:1017900000C000000F900F900F900F90DF91CF913D
:1017A0000C948B09CF93C82F8091640190916501AF
:1017B0000E94311BEC2FF0E0EB5CFC4FE491E8174A
:1017C000190609F010F50E94251B9093650180937E
:1017D0006401E0916301F0E0E75CFC4F449180918B
:1017E0001602881F8827881F90911702292F220F21
:1017F00097FB992790F960911802822B0E94AC09FF
:10180000809163018F5F80936301CF910895CF939F
:10181000C82F80916101909162010E94311BEC2FD1
:10182000F0E0EE5CFC4FE491E817190609F0E8F4EB
:101830000E94251B909362018093610140911902DF
:101840006091180280915F01909160010E94AC0943
:1018500080915F0190916001019668E671E00E94BD
:1018600090279093600180935F01CF910895CF926C
:10187000DF92EF92FF920F931F93CF93C82F809127
:101880005D0190915E010E94311BEC2FE695F0E026
:10189000EE5CFC4FE491E817190609F0C8F50E94C8
:1018A000251B90935E0180935D018EE1E82E82E01E
:1018B000F82E10E000E098E6C92EDD24D394809144
:1018C0005B0190915C01800F911FB6010E949027EF
:1018D000970140911902609118020E94DA080B5E8C
:1018E0001F4F83E0E80EF11C053681E0180739F739
:1018F0000E948B0980915B0190915C01C0FF10C038
:101900000196B6010E94902790935C0180935B0141
:10191000CF911F910F91FF90EF90DF90CF9008959E
:101920000197F2CFAF92BF92CF92DF92EF92FF92E8
:101930000F931F93CF93DF93C82FDD24DA9480FD9C
:1019400002C0DD24D3948091590190915A010E94E4
:10195000311BC695EC2FF0E0E15DFC4FE491E817F8
:10196000190611F008F053C00E94251B90935A01EC
:1019700080935901CEE1D2E010E000E097E0A92E7B
:10198000B12C198218821A8287E0E82EF12CC12C22
:10199000809158018C0D87FD8F5E082E000C990BED
:1019A00080179107E9F4209119022E9DC0012F9D07
:1019B000900D1124B5010E94A427462F8091160294
:1019C000881F8827881F90911702592F550F97FB62
:1019D000992790F99E0160911802852B0E94DA08E0
:1019E000CD0C81E0E81AF10899F60F5F1F4F23969E
:1019F0000131110531F60E948B098091580191E067
:101A0000D91212C081110EC080E180935801DF917C
:101A1000CF911F910F91FF90EF90DF90CF90BF90EB
:101A2000AF9008958150F1CF90E00196B8010E94E7
:101A3000A427EBCFBF92CF92DF92EF92FF920F934A
:101A40001F93CF93DF93CDB7DEB7E3970FB6F8942C
:101A5000DEBF0FBECDBF182F809156019091570168
:101A60000E94311BE12FF0E0E45DFC4FE491E817A8
:101A7000190611F008F07AC00E94251B90935701B7
:101A8000809356018E010F5F1F4FF12CE12C6801EE
:101A9000D80111961C9211971C9212961C92B12C8F
:101AA0009091000180915501B99E800D11248131E2
:101AB0000CF080E187FD80E0082E000C990B8E155C
:101AC0009F05A1F480911602881F8827881F909196
:101AD0001702592F550F97FB992790F998014091BC
:101AE000190260911802852B0E94DA08B394B7E0BE
:101AF000BB12D6CFEFEFEE1AFE0A0D5F1F4FF1E1DA
:101B0000EF16F10429F62EE132E009E010E051E190
:101B1000E52EF12CC801B7010E94A427FC01EE0FAD
:101B2000FF1FE80FF91FEC0DFD1D8181D9011196F2
:101B30008C93119780818C93828112968C930F5F86
:101B40001F4F2D5F3F4F0A31110521F70E948B096E
:101B500090910001809155019130E1F48A3FB4F4F5
:101B600089EF809355018FEF80930001E3960FB6C4
:101B7000F894DEBF0FBECDBFDF91CF911F910F91C3
:101B8000FF90EF90DF90CF90BF90089581508093A9
:101B90005501ECCF88312CF087E18093550181E02D
:101BA000E3CF8F5FF4CFFF920F931F93CF93DF9319
:101BB00080915301909154010E94311B883E9340C3
:101BC000C8F10E94251B909354018093530180918A
:101BD0005101909152010196817099279093520181
:101BE0008093510121E1289F8001299F100D11242C
:101BF000CEE1D2E080E5F82EC801817099279E01E0
:101C00004091190260911802FC01FE9EC001FF9EE6
:101C1000900D11240E94DA080F5E1F4F2396F2E008
:101C2000C135DF0749F7DF91CF911F910F91FF90E9
:101C30000C948B09DF91CF911F910F91FF90089524
:101C400080916601882371F18091160286958F73C9
:101C50009EE3980F9F73943018F482500C94D20B2B
:101C60009AE3980F9F73933018F486500C94070CE6
:101C700097E3980F9F73963018F489500C94370CA3
:101C800091E3980F9F73963018F48F500C94920C38
:101C90009BE2980F9F73933018F485510C941A0DA2
:101CA0000C94D30D089590936D0180936C01089569
:101CB000E0916C01F0916D01309721F00190F0817D
:101CC000E02D099480E00895E0916C01F0916D01A0
:101CD000309721F00280F381E02D09940895E0917E
:101CE0006C01F0916D01309721F00480F581E02DB9
:101CF0000994089520916A0130916B0128173907E2
:101D000071F090936B0180936A01E0916C01F09106
:101D10006D01309721F00680F781E02D0994089538
:101D200020916801309169012817390771F090936B
:101D3000690180936801E0916C01F0916D01309729
:101D400021F00084F185E02D0994089508950C9404
:101D5000A60E0E941C1B0E949B070E94DE1B0C9477
:101D6000550BBF92CF92DF92EF92FF920F931F938A
:101D7000CF93DF9300D000D00F92CDB7DEB70E9493
:101D8000F2078FE6C82E81E0D82E10E000E0E02EAA
:101D9000802F0E949908B82EF601F1906F01F81675
:101DA00009F45BC08091E90181FD0E949F0830E049
:101DB00020E0FB244F2D50E0922FBA01022E02C0EA
:101DC000759567950A94E2F760FF41C02983EA821E
:101DD00021E030E0790102C0EE0CFF1C9A95E2F799
:101DE0002B2D30E02E213F2181E0232B09F480E0D0
:101DF0008B830E94251B8160782F9D838C83498172
:101E00005A816B818D810E94530FF801E159FE4F79
:101E100080818E2580830E948B1E0E94580E909197
:101E20006E01891789F10E94580E80936E010F9000
:101E30000F900F900F900F90DF91CF911F910F9106
:101E4000FF90EF90DF90CF90BF900C943C052F5FF8
:101E50003F4F2430310509F0AFCF0F5F1F4F0530E2
:101E6000110509F094CF8FEF89838A831B820E942A
:101E7000251B8160782F9D838C8349815A816B81DA
:101E80008D810E94530FC7CF0F900F900F900F902E
:101E90000F90DF91CF911F910F91FF90EF90DF9006
:101EA000CF90BF900895CF93DF93CDB7DEB72B9738
:101EB0000FB6F894DEBF0FBECDBF4F83588769873A
:101EC0007A878B871E8285E0FE013796DE011196A8
:101ED00001900D928A95E1F749815A816B817C814D
:101EE0008D819E812B960FB6F894DEBF0FBECDBFBD
:101EF000DF91CF910C94CA15882309F4D8C0823899
:101F000071F40E94580E81FDD2C089E30E946D19C0
:101F10000E94371A89E30E94AA190C94371A833851
:101F200059F40E94580E80FDC2C083E50E946D19CD
:101F30000E94371A83E5EFCF843859F40E94580E77
:101F400082FDB5C087E40E946D190E94371A87E4AC
:101F5000E2CF9CEF980F913A18F40E946D19DDCFF3
:101F600090E2980F983050F4877091E001C0990F7B
:101F70008A95EAF7892F0E94EE19CFCF9BE5980F3B
:101F8000933070F4853A31F0863A39F083E890E086
:101F90000C947A0E81E890E0FBCF82E890E0F8CFD5
:101FA00098E5980F953108F082C0883A09F440C04E
:101FB000893A09F440C08A3A09F440C08B3A09F4DE
:101FC00040C08C3A09F440C08B3B09F440C08C3BC4
:101FD00009F440C08D3A09F440C0803B09F440C088
:101FE0008E3A09F440C08F3A09F440C0813B09F4AD
:101FF00040C0823B09F440C0833B09F440C0843BAD
:1020000009F440C0853B09F440C0863B09F440C058
:10201000873B09F440C0883B09F440C0893B09F480
:1020200040C08A3B09F440C090E080E00C94900EE0
:1020300082EE90E0FBCF89EE90E0F8CF8AEE90E060
:10204000F5CF85EB90E0F2CF86EB90E0EFCF83EB1E
:1020500090E0ECCF84EB90E0E9CF87EB90E0E6CF27
:102060008CEC90E0E3CF8DEC90E0E0CF83E891E062
:10207000DDCF8AE891E0DACF82E991E0D7CF84E939
:1020800091E0D4CF81E292E0D1CF83E292E0CECF53
:1020900084E292E0CBCF85E292E0C8CF86E292E084
:1020A000C5CF87E292E0C2CF8AE292E0BFCF089527
:1020B000882309F44BC0823871F40E94580E81FFC6
:1020C00045C089E30E946D190E94371A89E30E9476
:1020D000AA190C94371A833859F40E94580E80FFBD
:1020E00035C083E50E946D190E94371A83E5EFCF52
:1020F000843859F40E94580E82FF28C087E40E9459
:102100006D190E94371A87E4E2CF9CEF980F913A3D
:10211000F0F290E2980F983050F4877091E001C08F
:10212000990F8A95EAF7892F0E94F419D2CF9BE57F
:10213000980F933020F490E080E00C947A0E885A47
:10214000853120F490E080E00C94900E089588236F
:1021500021F00E94EE190C94371A0895882321F07B
:102160000E94F4190C94371A08958F929F92AF929F
:10217000BF92DF92EF92FF920F931F93CF93DF9363
:1021800000D000D00F92CDB7DEB77C016D8379838C
:10219000FC01058102950F70128111110E940D1A28
:1021A0000E946619D82E882371F01123A1F08D8129
:1021B000805E883080F082E00E9450190E9466198B
:1021C00091E0D82ED926E981E295EF70F0E0ED5D3F
:1021D000F74D0C94B827D12CF6CF09810F70F981F7
:1021E000F07F11F00295007F1123B1F0002361F020
:1021F0008D81805E883018F02D81211109C0802FDB
:102200000E94EE190E94371A8D810E947C0F15C022
:10221000802F0E94FF19F6CF8D810E945810002355
:1022200061F08D81805E883018F03D81311129C0C8
:10223000802F0E94F4190E94371ADD2009F4D3C1BF
:102240000E94431980FDCFC1F70112820E943D19FF
:102250000E948817C7010E9404130E943D190F9025
:102260000F900F900F900F90DF91CF911F910F91D2
:10227000FF90EF90DF90BF90AF909F908F900C9465
:10228000AA17802F0E94051AD6CF49814F70B42E0D
:102290005981507F503219F0B29480EFB8228D816D
:1022A000882369F0813029F1112369F1002359F065
:1022B000F701858180FFA8CF8F70858304C011232B
:1022C00061F0011104C08B2D0E94A710B6CF8B2D99
:1022D0000130D1F70E94211AB0CF011106C00E942F
:1022E000241A8B2D0E94AE10A8CF013009F4A5CF7F
:1022F000F6CF112321F0063008F09FCFE4CF053050
:1023000008F09BCFEECF002361F38D810E9458101F
:1023100094CF898186958695837069F0813009F024
:102320008CCF8D8199819370111102C090E080E073
:102330000E94900E82CF8D8199819370111102C0FD
:1023400090E080E00E947A0E78CF8D81112329F0F1
:102350000E94991D0E94801E70CF0E94011EFACF1C
:102360008981837009F05FC0111167CF2D8122959B
:1023700026952770220F220F8D818F7090E0B0E09C
:10238000A0E04C015D01022E04C0880C991CAA1C1F
:10239000BB1C0A94D2F7FD8160E070E0CB01F4FF32
:1023A0000FC06FE070E080E090E004C0660F771F20
:1023B000881F991F2A95D2F7609570958095909502
:1023C00029812695269523702D832230B1F0233064
:1023D00019F19B01AC01282939294A295B29298354
:1023E0003A834B835C833D8169817A818B819C81B7
:1023F0003130B1F00E94151720CF9B01AC01282984
:1024000039294A295B2929833A834B835C83CA0192
:10241000B9010E943F1711CF0E941517C501B401E1
:102420000E94EB160ACF8695112311F089818170E5
:10243000882309F402CF2D81229526952770220F3B
:10244000220F8D818F7090E0B0E0A0E04C015D0123
:10245000022E04C0880C991CAA1CBB1C0A94D2F73B
:102460003D8160E070E0CB0134FF0FC06FE070E0B1
:1024700080E090E004C0660F771F881F991F2A959F
:10248000D2F76095709580959095498146954695CF
:1024900043704D834230B1F0433019F19B01AC01E0
:1024A000282939294A295B2929833A834B835C836C
:1024B0003D8169817A818B819C813130B1F00E94AC
:1024C0001B18BBCE9B01AC01282939294A295B295D
:1024D00029833A834B835C83CA01B9010E94451862
:1024E000ACCE0E941B18C501B4010E94F117A5CE05
:1024F0003D81323F09F447C080F4303F79F1313FEC
:10250000D9F1832F805E8031D0F0112309F456C0B9
:1025100001117ACE89818F7133C04D81433FD1F152
:10252000443F99F7112309F43FC089818F71898352
:102530000E94881763E089810E9447197ECE5D81E1
:102540005F705D8389818F71112321F00E9488174C
:102550008D81BACE0E94AA178D81C4CE112341F07D
:10256000053008F06ACE89818F710E94CF1765CE41
:10257000063008F062CEF7CF89818F71112339F0D0
:102580000E9488175ACE89818F711123C9F30E9446
:10259000AA1753CE112329F089818F710E947317D6
:1025A0004CCE0E94691749CE81E00E94501902303A
:1025B00008F443CE82E00E9450193FCE0111A5CE0F
:1025C00089818F71E4CF49814F706D81C7010E946D
:1025D000BB030E94641631CE49814F706D81C701E3
:1025E0000E943E052ACE0F900F900F900F900F90F3
:1025F000DF91CF911F910F91FF90EF90DF90BF90EF
:10260000AF909F908F9008950F931F93CF93DF9378
:10261000EC018B819C81892B29F088819981892308
:102620008F3F29F4DF91CF911F910F910895CE0133
:102630000E94D4038823B1F3688179818A810E9442
:1026400013198C010E946F180E94E016B801CE0188
:10265000DF91CF911F910F910C94B5100E940D1A2C
:102660000E941E1A0E94E0190E94371A0E94711FD0
:102670000E94801E90E080E00E947A0E90E080E050
:102680000C94900E0E94FC190C942E130E940719B2
:10269000282F892F82958F70903C80F48A30B0F477
:1026A000843020F4823090F480E008958630E1F7A1
:1026B00081E0203E88F0213FB9F70EC08C3011F048
:1026C0008F3091F793FB882780F9089581E0203FB0
:1026D00039F018F4203E40F70895243F29F7FCCF45
:1026E0000895CF93DF9300D000D00F92CDB7DEB71F
:1026F0000F900F900F900F900F90DF91CF91089552
:10270000CF93DF9300D000D000D0CDB7DEB72696B0
:102710000FB6F894DEBF0FBECDBFDF91CF91089505
:102720001F93CF93DF93E091750116E080917601BE
:102730008E1304C0DF91CF911F910895CE2FD0E06A
:102740001E9FF0011124E958FE4F408151816281A2
:102750007381848195810E948013FE013196E77018
:10276000E5CF4091A7015091A8016091A901709116
:10277000AA018091AB019091AC010C9480131F933E
:10278000CF93DF938091AC01807FC1F48091A90148
:102790008823A1F080917501C09176016091A70115
:1027A0007091A8014091AA015091AB01D62FD72377
:1027B000DA01A095B09516E0C81304C0DF91CF915F
:1027C0001F91089590E04115510511F0DF3F31F45C
:1027D00001968770F1CF2A0F3B1F17C0189FF00199
:1027E000199FF00D1124E958FE4F21812713F0CFD6
:1027F00020812613EDCF22812111EACF238134815C
:102800002417350740F3241B350B283C310500F70E
:102810002091AC012F7020612093AC0126E0289F0D
:10282000F001299FF00D1124E458FE4F80818F7034
:102830008061808387EA91E00E940413DF91CF9149
:102840001F910C9490139F92AF92BF92CF92DF9200
:10285000EF92FF920F931F93CF93DF93CDB7DEB725
:102860002B970FB6F894DEBF0FBECDBF8C0185E06D
:10287000F801DE01179601900D928A95E1F7D801D3
:102880004C9111965C9111971296EC901297809151
:10289000AA019091AB01009709F46BC12091A701A7
:1028A0003091A801632F62236F3F09F462C1139630
:1028B000CD90DC909090A901992009F4F8C0C81639
:1028C000D90608F43FC0F601E81BF90BCF01FF243D
:1028D000F394883C910508F0F12C87EAA82E81E05A
:1028E000B82E8091AC01982F907FFF2009F4B7C0DB
:1028F000911180C0FE2C35132AC0241328C0E1108A
:1029000026C08F7080618093AC010E94B113C50115
:102910000E9404138091AC01D80115968C938F2DE1
:102920002B960FB6F894DEBF0FBECDBFDF91CF91CF
:102930001F910F91FF90EF90DF90CF90BF90AF90DD
:102940009F900895809590958C0D9D1DC0CFCD28AA
:1029500029F0842F85238F3F09F019C180E0B82F1B
:10296000B170DB2EE09175012091760136E080FD9B
:102970001CC0EE20A1F28091AC0181608093AC017B
:10298000F12CCDCF8E2F90E03E9FF0011124E9581D
:10299000FE4F6181651306C06081641303C06281CC
:1029A0006E11E7CFFC013196E770E213EBCF4F8356
:1029B00058878F8198850E940719292F22952F709B
:1029C000903260F0225F2F70223078F49F7051F0C7
:1029D000F8019581907F31F4D12C0AC09F7011F0DD
:1029E0008823D1F3805E8830B8F3C8010E940413B5
:1029F000FD2C95CF351306C0241304C0D801EE205A
:102A000009F47BC04F8358878F8198850E944613B5
:102A1000882309F4B8C0EE2009F4B5C08091AC0158
:102A2000803270F02091A7013091A8013A83298368
:102A30001B82DD82CC828E83CE0101960E9404131C
:102A400086E0F801A7EAB1E001900D928A95E1F7DE
:102A50000E94BF130E94B113FF24F39460CF911121
:102A600013C07C2DDB86CA866E2D8B850E94711368
:102A700087EA91E00E94041386E0F50111928A959D
:102A8000E9F70E94B1134BCF3513BCCF2413BACF53
:102A9000E110B8CFD80115968C93C8010E94041399
:102AA00086E0F50111928A95E9F7F92C38CFC8161E
:102AB000D90688F1B601681B790BCB01F12C883C53
:102AC000910508F047C0FE2CEE2009F45CC03513D8
:102AD00030C024132EC08091AC0180FD21C0982FFE
:102AE000907FF1F0D80115968C931597903F39F0AF
:102AF000982F907F905F8F70892B15968C93C801CB
:102B00000E94041386E0F801A7EAB1E001900D925B
:102B10008A95E1F7B6CF809590958C0D9D1DCECF0F
:102B200086E0F801A7EAB1E001900D928A95E1F7FD
:102B3000F6CE4F8358878F8198850E944613811166
:102B40007FCF8091AC0181608093AC01C8010E946D
:102B50000413E5CE7C2DDB86CA866E2D8B850E9404
:102B6000711386E0E7EAF1E0DF011D928A95E9F74B
:102B700088CFEE2041F04F8358878F8198850E943F
:102B8000461381115DCFC8010E94041365CF81E017
:102B90008E25E5CE1F93CF93DF93CDB7DEB72C976D
:102BA0000FB6F894DEBF0FBECDBF4F83588769873D
:102BB0007A878B879C87CE0107960E9423148823EF
:102BC00069F08A859B85892B39F04F815885842F40
:102BD00085238F3F09F071C016E05FC086E0FE01DB
:102BE0003796DE01119601900D928A95E1F78A855C
:102BF0009B85892B89F388859F8189238F3F61F38A
:102C00002091760130E0C9010196877099274091A3
:102C100075014817190671F40E944213109276014B
:102C20001092750186E0E7EAF1E0DF011D928A95D6
:102C3000E9F7D2CF96E0929FD001939FB00D112477
:102C4000A958BE4FFE01319601900D929A95E1F779
:102C5000809376010E949013BFCF819FC001112401
:102C600089589E4F0E9423148823E9F0E091750152
:102C70001E9FF0011124E958FE4F4081518162816D
:102C80007381848195810E9480138091750190E009
:102C900001968770992780937501809175019091B5
:102CA00076018913DACF2C960FB6F894DEBF0FBEEB
:102CB000CDBFDF91CF911F91089569857A858B856E
:102CC0009C850E94801388CFEF92FF920F931F93F1
:102CD000CF93DF938C01892B89F0F12CEE24E394C0
:102CE000E8012196F8018491843709F457C0A0F4D3
:102CF000823009F43EC048F48130D1F0DF91CF91A9
:102D00001F910F91FF90EF9008959CEF980F9037CF
:102D1000A8F70E947C0F0AC0853709F44CC09CE7D5
:102D2000980F903758F78F770E9458108E0116C071
:102D30000E5F1F4FFE01849190E2980F983060F46F
:102D40008770FE2D01C0FF0F8A95EAF78F2F0E9432
:102D5000101A0E94371A02C00E947C0F8F2D8150DA
:102D600008F4BECFEFE9FFE03197F1F700C00000B3
:102D7000F6CF0E5F1F4FFE01849190E2980F9830BE
:102D800050F48770FE2D01C0FF0F8A95EAF78F2F50
:102D90000E94161ADECF0E945810E0CF0E5F1F4F20
:102DA000FE01C491C150D0F28FE99FE00197F1F785
:102DB00000C00000F7CF0E5F1F4FFE01F490CECF92
:102DC00008956093C0017093C1018093C2019093F4
:102DD000C3010C942E13CF93DF9300D000D0CDB756
:102DE000DEB769837A838B839C838091C001909145
:102DF000C101A091C201B091C30129813A814B81E7
:102E00005C81822B932BA42BB52B8093C0019093D4
:102E1000C101A093C201B093C3010F900F900F9016
:102E20000F90DF91CF910C942E13CF93DF9300D0AE
:102E300000D0CDB7DEB769837A838B839C83809182
:102E4000C0019091C101A091C201B091C30129813B
:102E50003A814B815C8182239323A423B523809301
:102E6000C0019093C101A093C201B093C3010F9020
:102E70000F900F900F90DF91CF910C942E13CF9362
:102E8000DF9300D000D0CDB7DEB769837A838B8320
:102E90009C838091C0019091C101A091C201B09129
:102EA000C30129813A814B815C8182279327A42722
:102EB000B5278093C0019093C101A093C201B09344
:102EC000C3010F900F900F900F90DF91CF910C9452
:102ED0002E131092BC011092BD011092BE011092EF
:102EE000BF010C942E1341E050E060E070E004C09C
:102EF000440F551F661F771F8A95D2F74093BC0178
:102F00005093BD016093BE017093BF010C942E13CA
:102F1000282F81E090E0A0E0B0E004C0880F991F66
:102F2000AA1FBB1F2A95D2F74091BC015091BD0149
:102F30006091BE017091BF01842B952BA62BB72BFE
:102F40008093BC019093BD01A093BE01B093BF01DB
:102F50000C942E1341E050E060E070E004C0440F98
:102F6000551F661F771F8A95D2F74095509560953B
:102F700070958091BC019091BD01A091BE01B0916E
:102F8000BF0184239523A623B7238093BC0190938C
:102F9000BD01A093BE01B093BF010C942E13282F46
:102FA00081E090E0A0E0B0E004C0880F991FAA1F64
:102FB000BB1F2A95D2F74091BC015091BD01609191
:102FC000BE017091BF0184279527A627B72780935C
:102FD000BC019093BD01A093BE01B093BF010C94BE
:102FE0002E13CF93DF9300D000D0CDB7DEB7698327
:102FF0007A838B839C838091BC019091BD01A091C9
:10300000BE01B091BF0129813A814B815C81822B45
:10301000932BA42BB52B8093BC019093BD01A0935F
:10302000BE01B093BF010F900F900F900F90DF91F2
:10303000CF910C942E13CF93DF9300D000D0CDB757
:10304000DEB769837A838B839C838091BC019091E6
:10305000BD01A091BE01B091BF0129813A814B8190
:103060005C8182239323A423B5238093BC01909396
:10307000BD01A093BE01B093BF010F900F900F90C0
:103080000F90DF91CF910C942E13CF93DF9300D04C
:1030900000D0CDB7DEB769837A838B839C83809120
:1030A000BC019091BD01A091BE01B091BF012981E9
:1030B0003A814B815C8182279327A427B52780938F
:1030C000BC019093BD01A093BE01B093BF010F90CE
:1030D0000F900F900F90DF91CF910C942E130895C5
:1030E000E92FEE0FEE0FE80F8E2F877041E001C041
:1030F000440F8A95EAF7E695E695E69585E0E89F20
:10310000F0011124E355FE4F30E020E070E05191D2
:10311000DF011197CB01022E02C0969587950A9484
:10312000E2F7817081958527842385278C932F5F13
:103130003F4F2530310559F70895E92FEE0FEE0F77
:10314000E80F9E2F9770E695E695E69585E0E89F57
:10315000F0011124E355FE4F50E040E080E0219162
:1031600030E0092E02C0369527950A94E2F72170C7
:103170003327042E01C0220F0A94EAF7822B4F5FF7
:103180005F4F4530510559F70895BF92CF92DF92B6
:10319000EF92FF920F931F93CF93DF938C01C09018
:1031A000BC01D090BD01E090BE01F090BF018091C4
:1031B000C0019091C101A091C201B091C301C82A80
:1031C000D92AEA2AFB2ACFE1D0E0BC2ED701C601DA
:1031D0000C2E04C0B695A795979587950A94D2F7BB
:1031E00080FD0EC0219788F7B12C8B2DDF91CF91F8
:1031F0001F910F91FF90EF90DF90CF90BF900895B7
:10320000B8018C2F0E945B05019761F3EECFCF933D
:10321000DF93D82FC92F0E94C5186D2F7C2FDF9107
:10322000CF910C945B051F93CF93DF93162FD72F6D
:1032300090917401992339F0862F972FDF91CF91C8
:103240001F910C940719882391F0862F972F0E94C5
:10325000C518C82F682F812F9D2F0E947018612FCD
:103260007D2F8C2FDF91CF911F910C945B05862FC2
:10327000972F0E949D18C82FF2CF8091C401859589
:103280008595859508958091C4018770089598E08B
:10329000899F90011124622B6093C4010C948817BC
:1032A0009091C401809589238093C401282F2770B1
:1032B00061F4282F082E000C330B9217130629F007
:1032C0008595859585950C94AA1708959091C401CC
:1032D000977081E009F480E008959091130199239B
:1032E000E1F09091550297FF18C0E82FE695E6951A
:1032F000E695EF3139F12091010130910201E20FA1
:10330000F32FF11D877021E030E001C0220F8A9574
:10331000EAF78181822B8183089520910101309108
:103320000201F90132969FEF40E05191851751F06B
:103330009F3F19F4511101C0942F4F5F4E31A9F7EF
:103340009F3F09F40895290F311D97FD3A95F90122
:103350008283089590911301992301F19091550270
:1033600097FF1CC0E82FE695E695E695EF3139F119
:103370002091010130910201E20FF32FF11D8770BE
:1033800021E030E0A90102C0440F551F8A95E2F701
:10339000CA0180959181892381830895209101013B
:1033A00030910201F9013296205E3F4F91918913CD
:1033B00003C0DF0111971C92E217F307B9F70895D4
:1033C00081E090E0E0910101F0910201E80FF91F26
:1033D0001082019680329105A9F708959091E80135
:1033E000982B9093E8010895982F90958091E8018B
:1033F00089238093E80108951092E801089590913F
:10340000E701982B9093E7010895982F909580916C
:10341000E70189238093E70108951092E701089559
:103420009091E601982B9093E6010895982F90953E
:103430008091E60189238093E60108951092E601C8
:1034400008958093C50108951092C50108952091B3
:10345000010130910201F9013196205E3F4F80E079
:10346000919191118F5FE217F307D1F70895E091E1
:103470000101F09102018091E8018083E091010156
:10348000F091020180819091E701892B8083E09186
:103490000101F091020180819091E601892B8083E6
:1034A0009091C501992361F0E0910101F091020131
:1034B0008081892B80830E94271A81111092C50177
:1034C00080910101909102010C94640E6DEE7EEFEB
:1034D00090E080E00E94F02760E082E090E00E94AF
:1034E000D22760E083E090E00E94D22760E084E091
:1034F00090E00E94D22760E085E090E00E94D22711
:1035000040E050E0BA0188E090E00C94E42790E0BD
:1035100080E00E94CC279C0181E02D3E3E4F09F0C7
:1035200080E0089582E090E00C94BE27682F82E04E
:1035300090E00C94D22783E090E00C94BE27682F93
:1035400083E090E00C94D22784E090E00C94BE27B6
:10355000682F84E090E00C94D22780915B02843045
:1035600039F11092EA0188E190E020E40FB6F89476
:10357000A895809360000FBE2093600080E00E94B9
:103580003C0583B7817F846083BF83B7816083BF3D
:103590007894889583B78E7F83BF0FB6F894A895EB
:1035A00080916000886180936000109260000FBE7F
:1035B000089508950895CF930E94D91A0E94F207A2
:1035C0000E94DA1AC0E08C2F0E949908811105C070
:1035D000CF5FC530C1F7CF91089581E0FCCF0E9445
:1035E00042130E94580E0C943C051F921FB61F9266
:1035F00011248F939F93AF93BF938091EA01811120
:1036000013C08091510290915202A0915302B09147
:1036100054024196A11DB11D809351029093520214
:10362000A0935302B0935402BF91AF919F918F9199
:103630001F901FBE1F90189582E084BD93E095BD3A
:103640009AEF97BD80936E0008952FB7F8948091FC
:10365000510290915202A0915302B09154022FBF97
:103660000895CF92DF92EF92FF929C014FB7F894AA
:103670008091510290915202A0915302B091540254
:103680004FBF6C017D01EE24FF24A90170E060E0D2
:10369000C416D506E606F70638F0821B930BFF909A
:1036A000EF90DF90CF9008950197F7CF1F921FB64C
:1036B0001F9211248F939F93AF93BF9380915102D8
:1036C00090915202A0915302B09154020196A11D13
:1036D000B11D8093510290935202A0935302B09374
:1036E0005402BF91AF919F918F911F901FBE1F9069
:1036F00018950E946723F8942FEF87EA91E62150EE
:1037000080409040E1F700C0000087E090EBDC01D2
:103710008093640290936502A0936602B09367025F
:1037200088E19CE00FB6F894A895809360000FBEE6
:1037300090936000FFCFCF92DF92EF92FF920F93B2
:103740001F93CF93C0E0E82EF12C8C2F0E94990894
:1037500010E000E0C82ED12CC601002E02C09595C5
:1037600087950A94E2F780FF11C0602F7C2F80E0DC
:103770000E943F05E816F90649F481E0CF911F91B8
:103780000F91FF90EF90DF90CF9008950F5F1F4F44
:103790000430110509F7CF5FC530B9F680E0EECFF0
:1037A000CF93C82F8CE20E949B1B882321F08C2F83
:1037B000CF910C949B1B80E0CF910895CF93DF9322
:1037C00000D000D0CDB7DEB70E94871A811102C0A9
:1037D0000E94661A95E6998308C00E94F2078FE35B
:1037E0009CE90197F1F700C00000A981A150A983CD
:1037F000A111F3CF89E20E94D01B811110C18AE28E
:103800000E94D01B81110E94661A85E00E94D01B85
:1038100081110E94791B0E94921A8093E90187E02E
:103820000E94D01B882371F08BE10E94D01B88235B
:1038300009F4D1C09091E901892F8D7F91FF8260B9
:103840008093E9018091E9010E94961A0E94A41ACE
:1038500090E0909356028093550280EE0E94D01B18
:10386000882341F090915502892F8E7F90FF8160CF
:103870008093550289E30E94D01B882341F09091E8
:103880005502892F8D7F91FF82608093550282EED1
:103890000E94D01B882341F090915502892F8B7F85
:1038A00092FF84608093550286EE0E94D01B88238D
:1038B00041F090915502892F877F93FF8860809314
:1038C000550283EE0E94D01B882341F0909155024F
:1038D000892F8F7E94FF80618093550285E30E943B
:1038E000D01B882341F090915502892F8F7D95FF41
:1038F00080628093550281E30E94D01B882341F0AF
:1039000090915502892F8F7B96FF8064809355029A
:1039100081E10E94D01B882341F090915502892FAC
:1039200097FB87F9805880935502809155020E9439
:10393000A81A87E20E94D01B89838EE10E94D01BC7
:10394000882319F0B981B260B9838FE10E94D01B3E
:10395000882319F029812460298380E20E94D01BEA
:10396000882319F039813860398381E20E94D01BA5
:10397000882319F049814061498382E20E94D01B6B
:10398000882319F059815062598383E20E94D01B29
:10399000882319F089818064898384E20E94D01B86
:1039A0008823B1F199819068998389810E949F1A37
:1039B0003981232F30E050E040E029833A834B8364
:1039C0005C83CA01B9010F900F900F900F90DF91A7
:1039D000CF910C94E1168EE00E94D01B882339F021
:1039E0009091E901892F8B7F92FF846029CF80E13C
:1039F0000E94D01B9091E901882329F0892F877FAD
:103A000093FF88601DCF892F8E7F90FF816018CF34
:103A1000A981A111CACF0E949B1A282FCBCF0F904A
:103A20000F900F900F90DF91CF9108958091ED014D
:103A300080FF12C06091060185E0689FB0011124EB
:103A4000759567957595679560387105A8F5611549
:103A50007105A1F1862F089581FF09C060910601CB
:103A600085E0689FB001112475956795EDCF609151
:103A7000060182FD0AC08091EE018823D1F0909169
:103A8000050160910601891728F085E0689FB00163
:103A90001124DACF869FB001112485E0869F900122
:103AA000879F300D1124692F70E0C9010E94A4275F
:103AB000CBCF65E070E0CECF8FE7089581E0089529
:103AC0008091ED0180FF0CC06091040170E075955C
:103AD0006795759567956115710549F1862F08956C
:103AE00081FF06C06091040170E075956795F3CF82
:103AF0006091040182FD0BC09091EE019923A1F029
:103B00006091030180910401961738F0682F70E0EE
:103B10006038710500F38FE70895899FC001112473
:103B200070E00E94A427F4CF61E070E0D7CF81E07D
:103B30000895803F31F40E94161D81958093F10114
:103B40000895813F19F40E94161DF8CF823F31F489
:103B50000E94161D81958093F0010895833F19F40A
:103B60000E94161DF8CF893F29F40E94601D8093A2
:103B7000F20108958A3F21F40E94601D8195F7CFDC
:103B80008B3F31F40E94601D81958093F30108956D
:103B90008C3F19F40E94601DF8CF843F31F480916E
:103BA000EF0181608093EF010895853F21F48091BA
:103BB000EF018260F7CF863F21F48091EF018460AE
:103BC000F1CF873F21F48091EF018860EBCF883FF0
:103BD00021F48091EF018061E5CF8D3F31F4809138
:103BE000ED0181608093ED0108958E3F21F4809175
:103BF000ED018260F7CF8F3FB9F78091ED018460CE
:103C0000F1CF9091F001803F41F48091F10187FD67
:103C10001092F101992371F00895813F29F4809168
:103C2000F1011816ACF3F6CF823F81F497FFF2CF83
:103C30001092F0018091F1019091F201892B909105
:103C4000F301892B49F71092EE010895833F19F48F
:103C5000191674F3DFCF893F39F48091F2011816F9
:103C6000CCF61092F201D6CF8A3F29F48091F2016E
:103C700087FFD0CFF6CF8B3F39F48091F30187FFD8
:103C8000C9CF1092F301C6CF8C3F29F48091F30184
:103C90001816BCF3BFCF843F31F48091EF018E7FC3
:103CA0008093EF01B7CF853F21F48091EF018D7FA5
:103CB000F7CF863F21F48091EF018B7FF1CF873FD3
:103CC00021F48091EF01877FEBCF883F21F4809131
:103CD000EF018F7EE5CF8D3F31F48091ED018E7F36
:103CE0008093ED0197CF8E3F21F48091ED018D7F80
:103CF000F7CF8F3F09F08ECF8091ED018B7FF0CF12
:103D00008FEE91E00E946F0E0E94251B9093EC01B4
:103D10008093EB0108951F93CF93DF9300D000D0E1
:103D200000D0CDB7DEB78091EB019091EC010E94FD
:103D3000311BAC018091EE012091070130E081112F
:103D400006C0209108019AE0299F90011124421792
:103D5000530788F02091F001A091F101A9831091FF
:103D6000F201B091F301BE8321110FC09A2F912B64
:103D70009B2B09F0B2C026960FB6F894DEBF0FBE9B
:103D8000CDBFDF91CF911F9108958F3F19F08F5FC5
:103D90008093EE01121624F40E94161D8093F00108
:103DA0008091F00187FF05C00E94161D81958093C8
:103DB000F0012981121624F40E94161D8093F1014E
:103DC0008091F10187FF05C00E94161D81958093A7
:103DD000F1018091F001882309F455C03091F1017F
:103DE0003D83332309F44FC0282F880F330B440B36
:103DF000550B29833A834B835C83CA01B9010E9426
:103E0000972623E333E343E35FE369837A838B837A
:103E10009C8369817A818B819C810E94FB266983C6
:103E20007A838B839C8369817A818B819C810E94B8
:103E30005F266093F0018D81082E000C990BAA0B70
:103E4000BB0B89839A83AB83BC83BC01CD010E94E9
:103E5000972623E333E343E35FE369837A838B832A
:103E60009C8369817A818B819C810E94FB26698376
:103E70007A838B839C8369817A818B819C810E9468
:103E80005F266093F101111624F40E94601D809357
:103E9000F2018091F20187FF05C00E94601D8195AB
:103EA0008093F2019E81191624F40E94601D809374
:103EB000F3018091F30187FF05C00E94601D819589
:103EC0008093F30126960FB6F894DEBF0FBECDBFE8
:103ED000DF91CF911F910C94801E8F3F09F057CF37
:103EE00068CF85E0EFEEF1E0DF011D928A95E9F7FA
:103EF0001092EE011092ED01089580911402089540
:103F0000CF93DF9300D00F92CDB7DEB720915B0245
:103F1000243019F523E029838A839B832093E900C9
:103F20008FEF9091E800815095FD06C095ED9A9530
:103F3000F1F700008111F5CF8091E80085FF0DC0F9
:103F400050E040E063E070E0CE0101960E94DF2186
:103F50008091E8008E778093E8000F900F900F908B
:103F6000DF91CF910895CF93DF9300D00F92CDB71B
:103F7000DEB79C0180915B02843031F582E0898359
:103F8000205831093B832A8383E08093E9008FEF37
:103F90009091E800815095FD06C095ED9A95F1F756
:103FA00000008111F5CF8091E80085FF0DC050E041
:103FB00040E063E070E0CE0101960E94DF21809135
:103FC000E8008E778093E8000F900F900F90DF91BC
:103FD000CF91089520915B022430F1F422E02093E8
:103FE000E9002FEF3091E800215035FD06C035ED96
:103FF0003A95F1F700002111F5CF2091E80025FF57
:104000000BC050E040E065E070E00E94DF2180914D
:10401000E8008E778093E8000895CF93DF93D82F40
:10402000C92F80915B028430F1F4909113019923A0
:10403000E9F09091550297FF19C08093E9008FEF46
:104040009091E800815095FD06C095E19A95F1F7B1
:1040500000008111F5CF8091E80050E040E060E27F
:1040600070E085FD1AC0DF91CF91089581E08093C3
:10407000E9008FEF9091E800815095FD06C095ED25
:104080009A95F1F700008111F5CF8091E80085FF46
:10409000EACF50E040E068E070E08D2F9C2F0E9456
:1040A000DF218091E8008E778093E80080E2ED2F99
:1040B000FC2FA4EFB1E001900D928A95E1F7D3CFE8
:1040C00080915A02811109C00E9467230E94C42373
:1040D0008091E20084608093E200089510925A0279
:1040E0000895089508950C94EF1A42E061EC81E080
:1040F0000E94E32242E061EC82E00E94E32242E07F
:1041000061EC83E00E94E32242E261EC84E00C94E3
:10411000E32280915D02893089F148F4823009F40C
:1041200094C0833009F44FC0813041F008958A3043
:1041300009F47BC08B3009F461C0089580915C0262
:10414000813A09F03FC08091E800877F8093E800C2
:104150008091600290916102892B61F460E284EFAA
:1041600091E070E00E942E228091E8008B7780938E
:10417000E800089560E090E080E0F3CF80915C0279
:10418000813201F58091600290916102009711F0F7
:104190000397C1F48091E800877F8093E8008091C5
:1041A000E80082FF0BC08091F1008093140280919F
:1041B000E8008B778093E8000C94172380915B02D2
:1041C0008111EDCF089580915C02813AD9F78091F9
:1041D000600290916102892BA9F78091E800877FA6
:1041E0008093E8008091E80080FFFCCF809113016C
:1041F0008093F1008091E8008E77DCCF80915C02A3
:10420000813201F78091600290916102892BD1F691
:104210008091E800877F8093E8000E9417238091B7
:104220005E02809313010C94421380915C028132F0
:1042300049F68091E800877F8093E8000E94172369
:1042400080915F0280931502089580915C02813A0B
:1042500009F0B8CF8091E800877F8093E8008091D3
:10426000E80080FFFCCF80911502C2CF84B7877F22
:1042700084BF0FB6F894A895809160008861809300
:104280006000109260000FBE80E880936100109281
:1042900061000E94A70E0E9467230E94C4238091A0
:1042A000E20084608093E20078940E9444260E9499
:1042B000A90E89E091E00E94530E80915B02853047
:1042C00029F00E94B10E0E94200EF7CF0E94AD1A75
:1042D00080915902882389F30E94DB1A882369F3AD
:1042E0000E94C921EACF9C01DA01892F99278330E6
:1042F0009105C1F068F48130910509F445C0029739
:1043000061F48DE690E029E635E02D933C93089525
:1043100081329105E1F0829739F190E080E030E060
:1043200020E0F3CFC9019927213059F0823091055F
:1043300059F0E5E6F5E0892B81F7849190E09F0143
:10434000E4CFEDE4F5E0F9CFE9E3F5E0F6CF643052
:1043500020F7E62FF0E0EE0FFF1FE75DFE4F208114
:10436000318189E090E0D1CF6430B8F670E0FB0194
:10437000EE0FFF1FEF5DFE4F20813181635E7E4FA8
:10438000FB01808190E0C1CF82E190E026ED35E035
:10439000BCCF80E189BD82E189BD09B400FEFDCFBB
:1043A0008091D8008F7D8093D8008091E00082605A
:1043B0008093E0008091E00081FDFCCF0895AF92F2
:1043C000BF92CF92DF92FF920F931F93CF93DF9311
:1043D0006C01EB018A010E943623F82E811123C063
:1043E0000115110539F0F80180819181C81BD90BA5
:1043F000C80ED91EB12CA12C2097A9F08091E800FD
:1044000085FD22C08091E8008E778093E800011539
:104410001105A1F0F80180819181A80EB91EB18229
:10442000A08285E0F82E8F2DDF91CF911F910F9103
:10443000FF90DF90CF90BF90AF9008950E943623F9
:104440008823D1F2F82EEFCFF60181916F0180938E
:10445000F1002197FFEFAF1ABF0ACECFFC01CB01CD
:1044600020916202309163022617370790F000977F
:1044700029F42091E8002E772093E80040E000978F
:1044800051F4411108C08091E80082FF31C080E002
:104490000895C901F3CF20915B022223A9F12530B1
:1044A000A9F12091E80023FD2DC02091E80022FD14
:1044B000EACF2091E80020FFE2CF3091F300209175
:1044C000F200009719F02830310558F041E028300B
:1044D000310509F040E02091E8002E772093E800B4
:1044E000CECF41914093F10001972F5F3F4FE9CF2D
:1044F00080915B02882341F0853041F08091E80093
:1045000083FFC1CF81E0089582E0089583E008959C
:10451000FC01CB012091620230916302261737071C
:1045200090F0009729F42091E8002E772093E8007E
:1045300040E0009751F4411108C08091E80082FFEB
:1045400032C080E00895C901F3CF20915B0222239D
:10455000B1F12530B1F12091E80023FD2EC020916A
:10456000E80022FDEACF2091E80020FFE2CF309161
:10457000F3002091F200009719F02830310558F02F
:1045800041E02830310509F040E02091E8002E7725
:104590002093E800CECF44914093F10031960197EB
:1045A0002F5F3F4FE8CF80915B02882341F0853039
:1045B00041F08091E80083FFC0CF81E0089582E060
:1045C000089583E00895982F973028F08F70809396
:1045D000E90081E008959093E900242F762F50E0C0
:1045E000981731F07091EC002091ED005091F0009F
:1045F00021FD02C09F5FE8CF3091EB003E7F3093FA
:10460000EB003091ED003D7F3093ED003091EB00F9
:1046100031603093EB007093EC002093ED005093E9
:10462000F0002091EE0027FDE5CF80E00895809115
:104630005C0287FF13C08091E80082FF06C0809172
:10464000E8008B778093E80004C080915B028111C1
:10465000F2CF089580915B028823D9F38091E8001E
:1046600080FFF8CF8091E8008E77ECCF2091E400B6
:104670003091E50095E6A9012091EC00822F817030
:1046800020FF06C08091E80080FF06C080E008950A
:104690002091E80022FD1AC080915B02882389F0F6
:1046A000853089F08091EB0085FD0FC02091E400FA
:1046B0003091E50042175307F9F29150E1F684E09A
:1046C000089582E0089583E0089581E008950E94AE
:1046D000D5230E94DD23E0EEF0E0808181608083BD
:1046E000E8EDF0E080818F77808319BCA7EDB0E022
:1046F0008C918E7F8C9380818F7E808310925A0262
:1047000008950F931F93CF93DF930E94D5230E94A8
:10471000DD23C8EDD0E088818F7788838881806829
:10472000888388818F7D888319BC10925B021092E8
:104730005702109259021092580200EE10E0F80150
:1047400080818B7F808388818160888342E060E004
:1047500080E00E94E322E1EEF0E080818E7F8083A2
:10476000E2EEF0E0808181608083808188608083D8
:10477000F80180818E7F8083888180618883DF91CA
:10478000CF911F910F910895E8EDF0E080818F7E29
:104790008083E7EDF0E080818160808384E082BFE8
:1047A00081E080935A020C948123E8EDF0E080814F
:1047B0008E7F80831092E20008951092DA001092AA
:1047C000E10008951F920F920FB60F9211242F93BC
:1047D0003F934F935F936F937F938F939F93AF9389
:1047E000BF93EF93FF938091E10082FF0BC0809114
:1047F000E20082FF07C08091E1008B7F8093E1009F
:104800000E9443268091DA0080FF19C08091D80071
:1048100080FF15C08091DA008E7F8093DA0080914E
:10482000D90080FF94C080E189BD82E189BD09B4CF
:1048300000FEFDCF81E080935B020E9460208091AA
:10484000E10080FF19C08091E20080FF15C08091D7
:10485000E2008E7F8093E2008091E200806180938D
:10486000E2008091D80080628093D80019BC85E076
:1048700080935B020E9472208091E10084FF29C036
:104880008091E20084FF25C080E189BD82E189BD7D
:1048900009B400FEFDCF8091D8008F7D8093D800B1
:1048A0008091E1008F7E8093E1008091E2008F7E15
:1048B0008093E2008091E20081608093E200809129
:1048C0005702882309F449C084E080935B020E9468
:1048D00073208091E10083FF29C08091E20083FF73
:1048E00025C08091E100877F8093E10082E0809382
:1048F0005B02109257028091E1008E7F8093E1006D
:104900008091E2008E7F8093E2008091E2008061DE
:104910008093E20042E060E080E00E94E322809128
:10492000F00088608093F0000E947120FF91EF9169
:10493000BF91AF919F918F917F916F915F914F91B7
:104940003F912F910F900FBE0F901F90189519BC9B
:1049500010925B020E946E2072CF8091E30087FD6F
:1049600002C081E0B2CF83E0B0CF1F920F920FB6AA
:104970000F9211242F933F934F935F936F937F93E5
:104980008F939F93AF93BF93CF93DF93EF93FF9357
:10499000D091E900DF708091EC00C82FC17080FDDC
:1049A000C0E81092E9008091F000877F8093F000CA
:1049B00078940E94F9241092E9008091F0008860B8
:1049C0008093F000CD2BCF70C093E900FF91EF9161
:1049D000DF91CF91BF91AF919F918F917F916F9117
:1049E0005F914F913F912F910F900FBE0F901F90AD
:1049F00018951F93CF93DF93CDB7DEB7AA970FB665
:104A0000F894DEBF0FBECDBF8CE592E0FC010196AD
:104A10002091F100208322E084369207B9F70E94AA
:104A200089208091E80083FF16C180915C029091FB
:104A30005D029A3008F00FC1E92FF0E0ED5CF74D10
:104A40000C94B827803881F0823809F004C1809135
:104A500060028F708093E9008091EB0085FB8827CE
:104A600080F91092E90006C0809158029091590295
:104A7000911182609091E800977F9093E800809375
:104A8000F1001092F1008091E8008E77E0C0882359
:104A900009F4CEC0823009F0DEC080915E0281113F
:104AA000D1C0809160028F7009F4D5C08093E90075
:104AB0002091EB0020FFC6C0933031F48091EB00D1
:104AC00080628093EB00BEC09091EB009061909368
:104AD000EB0021E030E001C0220F8A95EAF7209335
:104AE000EA001092EA008091EB008860EACF811121
:104AF000B2C010915E021F778091E3008078812B15
:104B00008093E3008091E800877F8093E8000E9413
:104B100017238091E80080FFFCCF8091E30080683C
:104B20008093E30082E0111183E080935B0293C0E5
:104B30008058823008F08FC080915E0290915F02B1
:104B40008C3D23E09207A1F583E08A838AE2898382
:104B50004FB7F894DE01139620E03EE051E2E32FD8
:104B6000F0E050935700E49120FF03C0E295EF700E
:104B70003F5FEF708E2F90E0EA30C0F0C7968D93C4
:104B80009D932F5F243159F74FBF8091E800877FB5
:104B90008093E8006AE270E0CE0101960E942E2226
:104BA0008091E8008B778093E80055C0C096E7CFEE
:104BB000AE014F5F5F4F609160020E947321BC01A4
:104BC000892B09F448C08091E800877F8093E80032
:104BD00089819A810E948822E3CF8038E1F5809113
:104BE000E800877F8093E800809157028093F1006E
:104BF0004ACF811130C090915E02923060F5809171
:104C0000E800877F8093E800909357020E94172363
:104C100080915702882311F084E005C08091E30061
:104C200087FDFACF81E080935B020E94752013C05C
:104C300080915E02813079F481E0933009F080E068
:104C4000809359021092E9008091E800877F809359
:104C5000E8000E9417238091E80083FF0AC080913A
:104C6000E800877F8093E8008091EB00806280936A
:104C7000EB00AA960FB6F894DEBF0FBECDBFDF9152
:104C8000CF911F9108950895CF9380915B0288235F
:104C9000A1F0C091E900CF709091EC00892F817054
:104CA00090FD80E8C82B1092E9008091E80083FD18
:104CB0000E94F924CF70C093E900CF9108950E941B
:104CC00066266894B1110C94F52608950E94DA26A0
:104CD00088F09F5798F0B92F9927B751B0F0E1F0BD
:104CE000660F771F881F991F1AF0BA95C9F714C06D
:104CF000B13091F00E94F426B1E008950C94F426AE
:104D0000672F782F8827B85F39F0B93FCCF38695A5
:104D100077956795B395D9F73EF490958095709502
:104D200061957F4F8F4F9F4F0895E89409C097FB7F
:104D30003EF490958095709561957F4F8F4F9F4F72
:104D40009923A9F0F92F96E9BB279395F6958795B6
:104D500077956795B795F111F8CFFAF4BB0F11F479
:104D600060FF1BC06F5F7F4F8F4F9F4F16C0882320
:104D700011F096E911C0772321F09EE8872F762F56
:104D800005C0662371F096E8862F70E060E02AF097
:104D90009A95660F771F881FDAF7880F9695879583
:104DA00097F9089557FD9058440F551F59F05F3FEC
:104DB00071F04795880F97FB991F61F09F3F79F03D
:104DC00087950895121613061406551FF2CF4695BF
:104DD000F1DF08C0161617061806991FF1CF869541
:104DE0007105610508940895E894BB276627772725
:104DF000CB0197F908950E940E270C947F270E94FB
:104E0000712738F00E94782720F0952311F00C9438
:104E100068270C946E2711240C94F5260E94D22644
:104E200070F3959FC1F3950F50E0551F629FF001FD
:104E3000729FBB27F00DB11D639FAA27F00DB11D16
:104E4000AA1F649F6627B00DA11D661F829F22279F
:104E5000B00DA11D621F739FB00DA11D621F839F26
:104E6000A00D611D221F749F3327A00D611D231FFC
:104E7000849F600D211D822F762F6A2F11249F574A
:104E800050409AF0F1F088234AF0EE0FFF1FBB1F4D
:104E9000661F771F881F91505040A9F79E3F51050C
:104EA00080F00C9468270C94F5265F3FE4F3983E5D
:104EB000D4F3869577956795B795F795E7959F5FB6
:104EC000C1F7FE2B880F911D9695879597F9089548
:104ED00097F99F6780E870E060E008959FEF80ECAD
:104EE000089500240A941616170618060906089550
:104EF00000240A9412161306140605060895092EB6
:104F00000394000C11F4882352F0BB0F40F4BF2B24
:104F100011F460FF04C06F5F7F4F8F4F9F4F089564
:104F2000AA1BBB1B51E107C0AA1FBB1FA617B707CF
:104F300010F0A61BB70B881F991F5A95A9F78095EB
:104F40009095BC01CD01089597FB072E16F40094AF
:104F500007D077FD09D00E94902707FC05D03EF4CA
:104F6000909581959F4F0895709561957F4F089515
:104F7000EE0FFF1F0590F491E02D0994F999FECFF3
:104F800092BD81BDF89A992780B50895A6E1B0E059
:104F900044E050E00C94F827A8E1B0E042E050E093
:104FA0000C94F827262FF999FECF92BD81BDF89A6F
:104FB000019700B4021639F01FBA20BD0FB6F8945D
:104FC000FA9AF99A0FBE08950396272F0E94D327C5
:104FD0000E94D227252F0E94D327242F0C94D32759
:104FE0000196272F0E94D3270C94D227DC01CB01F6
:104FF000FC01F999FECF06C0F2BDE1BDF89A3196E9
:1050000000B40D9241505040B8F70895F894FFCF86
:105010007A047F04840489048E0493049804F004C1
:1050200015059D04A904AD04B104B504B904BD047B
:10503000C104C504C904CD04D104D504D904DD04D8
:10504000E104E504E904ED10ED1045114511891165
:10505000A5111D111D11B0111D1178127812E31246
:105060001D111D11EC12222547252B2647252B2625
:0A507000772598252B26ED25F9255C
:10507A00FFC6012808140A321E7D1F0D20EA1FB33D
:10508A001F801F0196973435366667F7F6404D360E
:10509A0039A40657062106E8057B059405AD05C621
:0250AA000500FF
:00000001FF
