:100000000C9472030C94B9030C94B9030C94B903C7
:100010000C94B9030C94B9030C94B9030C94B90370
:100020000C94B9030C94B9030C9489220C945C23AE
:100030000C949C190C94B9030C94B9030C94B90357
:100040000C94B9030C94B9030C94B9030C94B90340
:100050000C94B9030C94FD190C94B9030C94B903D6
:100060000C94B9030C94B9030C94B9030C94B90320
:100070000C94B9030C94B9030C94B9030C94B90310
:100080000C94B9030C94B9030C94B9030C94B90300
:100090000C94B9030C94B9030C94B9030C94B903F0
:1000A0000C94B9030C94B9030C94B90300005400E8
:1000B000550056005F006000610057005C005D0065
:1000C0005E00000059005A005B005800620000000A
:1000D00063000000000001000100010001000100B8
:1000E0000100010001000100010000000100010009
:1000F00001000100010000000100000000000100FB
:1001000001000100010001000100010001000100E7
:1001100001000000010001000100010001000000D9
:1001200001000000000001000100010001000100C9
:1001300001000100010001000100000001000100B8
:1001400001000100010000000100000000000100AA
:100150000100010001000100010001000100010097
:100160000100000001000100010001000100000089
:100170000100000000000100010001000100010079
:100180000100010001000100010000000100010068
:10019000010001000100000001000000000001005A
:1001A0000100010001000100010001000100010047
:1001B0000100000001000100010001000100000039
:1001C0000100000000000100010001000100010029
:1001D0000100010001000100010000000100010018
:1001E000010001000100000001000000000001000A
:1001F00001000100010001000100010001000100F7
:1002000001000000010001000100010001000000E8
:1002100001000000000001000100010001000100D8
:1002200001000100010001000100000001000100C7
:1002300001000100010000000100000000000100B9
:1002400001000100010001000100010001000100A6
:100250000100000001000100010001000100000098
:100260000100000000000100010001000100010088
:100270000100010001000100010000000100010077
:100280000100010001000000010000000000010069
:100290000100010001000100010001000100010056
:1002A0000100000001000100010001000100000048
:1002B0000100000000000100010001000100010038
:1002C0000100010001000100010000000100010027
:1002D0000100010001000000010000000000010019
:1002E0000100010001000100010001000100010006
:1002F00001000000010001000100010001000000F8
:1003000001000000000001000100010001000100E7
:1003100001000100010001000100000001000100D6
:1003200001000100010000000100000064321464BB
:100330003214783C1E1E140A050000000001010161
:100340000202030405050607090A0B0C0E0F111221
:10035000141517191B1D1F212325282A2C2F313472
:1003600036393B3E414346494C4F5255585A5D61E0
:1003700064676A6D707376797C7F8386898C8F92CF
:1003800095989B9EA2A5A7AAADB0B3B6B9BCBEC1B5
:10039000C4C6C9CBCED0D3D5D7DADCDEE0E2E4E602
:1003A000E8EAEBEDEEF0F1F3F4F5F6F8F9FAFAFB22
:1003B000FCFDFDFEFEFEFFFFFFFFFFFFFFFEFEFE5A
:1003C000FDFDFCFBFAFAF9F8F6F5F4F3F1F0EEEDC9
:1003D000EBEAE8E6E4E2E0DEDCDAD7D5D3D0CECB58
:1003E000C9C6C4C1BEBCB9B6B3B0ADAAA7A5A29ECA
:1003F0009B9895928F8C898683807C797673706DBB
:100400006A6764615D5A5855524F4C494643413EB4
:100410003B393634312F2C2A282523211F1D1B1947
:1004200017151412110F0E0C0B0A09070605050407
:1004300003020201010100000000000000000101B0
:100440000101010101010102020202020202020293
:100450000303030303030303040404040404050562
:100460000505050606060606070707070808080823
:100470000909090A0A0A0A0B0B0B0C0C0C0D0D0DCD
:100480000E0E0F0F0F10101111111212131314145E
:10049000151516161717181819191A1A1B1C1C1DD2
:1004A0001D1E1F1F20202122222324252526272729
:1004B00028292A2B2B2C2D2E2F2F30313233343557
:1004C00036363738393A3B3C3D3E3F404142434463
:1004D000464748494A4B4C4D4F5051525355565739
:1004E000585A5B5C5E5F606263646667696A6C6DE4
:1004F0006E707173747678797B7C7E80818384865C
:10050000888A8B8D8F91929496989A9B9D9FA1A398
:10051000A5A7A9ABADAFB1B3B5B7B9BBBDBFC1C49A
:10052000C6C8CACCCFD1D3D6D8DADCDFE1E4E6E85E
:10053000EBEDF0F2F5F7FAFCFF12036B00650079C2
:100540000062006F00610072006400000016037119
:10055000006D006B006200750069006C006400654E
:1005600000720000000403090409026D0004010088
:10057000A0FA090400000103010100092111010092
:10058000012240000705810308000A090401000157
:1005900003010200092111010001224D000705821B
:1005A0000308000A090402000103000000092111E8
:1005B0000100012236000705830308000A0904032D
:1005C0000001030000000921110100012239000788
:1005D0000584032000011201100100000008EDFE57
:1005E000606001000102000105010906A101050783
:1005F00019E029E715002501950875018102050814
:10060000190129059505750191029501750391015F
:100610000507190029F71500250195F875018102D4
:10062000C005010980A10185021601002603001AF8
:1006300081002A8300751095018100C0050C090115
:10064000A1018503160100269C021A01002A9C02C2
:10065000751095018100C005010902A1010901A1E0
:100660000005091901290515002501950575018168
:1006700002950175038101050109300931158125B4
:100680007F95027508810609381581257F950175CA
:10069000088106050C0A38021581257F9501750829
:1006A0008106C0C005010906A101050719E029E777
:1006B00015002501950875018102950175088101D4
:1006C0000508190129059505750191029501750324
:1006D00091010507190029FF150026FF00950675F1
:1006E000088100C011241FBECFEFDAE0DEBFCDBF0E
:1006F00004B603FE27C08091310290913202A0918E
:100700003302B09134028730904BA740B04BD1F404
:10071000109231021092320210923302109234027F
:1007200014BE84B7877F84BF0FB6F894A8958091D4
:100730006000886180936000109260000FBEE0E06E
:10074000F8E3099511E0A0E0B1E0E2EDFDE402C0BC
:1007500005900D92A233B107D9F722E0A2E3B1E0F0
:1007600001C01D92A133B207E1F70E94DD1F0C9476
:10077000B2260C94000090E080E00895089508955A
:1007800081E00895089581E008950C94C0030E94CB
:10079000E9112FEF84E39CE0215080409040E1F785
:1007A00000C000000C94201AEF92FF920F931F9349
:1007B000CF93DF937C01DC010D911C911197809107
:1007C0007401811143C012968C918823D1F1C80124
:1007D0000E946C17C82F682FC8010E941717B80114
:1007E0008C2F0E943F05EC01B7010E94C5038823AE
:1007F00009F468C0B701CE010E944807882309F4B4
:1008000061C0CE33B0E7DB0770F4C433E0E7DE0746
:1008100010F5C130F0E7DF0709F45CC050F5C115F1
:10082000D04709F44AC081E08093340180933501B8
:10083000C701DF91CF911F910F91FF90EF900C9422
:10084000C303C8010E944417C82FC9CFC8010E9422
:100850006C17B801C6CFFE01E553F047D7011296D9
:100860008C91E930F10508F040C0EC54F94D0C943E
:100870005F26CE01825090474397A8F6F701828108
:100880008823B1F20E942E19811102C00E940D1915
:100890000E944B1990E09093230280932202FE0164
:1008A000E350F047809122028160E231F10508F0C7
:1008B00047C0E354F94D0C945F26F7018281811102
:1008C0000E94C70380E0DF91CF911F910F91FF90AD
:1008D000EF900895D70112968C91882399F3809117
:1008E000E90181608093E901EDCF882359F30E94EB
:1008F000750BE8CF882331F30E946B0BE3CF88237D
:1009000009F30E94480ADECF8823E1F20E94600AC0
:10091000D9CF8823B9F20E947F0AD4CF882391F2DD
:100920000E94970ACFCF882369F20E94AF0ACACFEC
:10093000882341F20E94C70AC5CF809122028260BB
:1009400080932202809122020E944F190E94E91195
:10095000B9CF809122028460F3CF80912202886017
:10096000EFCF809122028061EBCF809122028062E2
:10097000E7CF809122028064E3CF809122028068D9
:10098000DFCF809122028C60DBCF809122028E7FAC
:10099000D7CF809122028D7FD3CF809122028B7F8F
:1009A000CFCF80912202877FCBCF809122028F7E92
:1009B000C7CF809122028F7DC3CF809122028F7B8F
:1009C000BFCF809122028F77BBCF80912202837F9D
:1009D000B7CF90912202892F97FB87F98058B0CF2B
:1009E000882361F0109234010E94CC199093330156
:1009F0008093320182E00E944E0F64CF80913401D7
:100A000081110FC080913201909133010E94D81959
:100A1000883C910530F486E20E94230E86E20E9413
:100A2000FF0E82E00E94550F4DCF882351F01092A7
:100A300035010E94CC19909333018093320180E2FA
:100A4000DACF8091350181110FC0809132019091F0
:100A500033010E94D819883C910530F487E20E9446
:100A6000230E87E20E94FF0E80E2DCCF0C949707F2
:100A70000C9499070C94C2030C943A050895E72F3F
:100A8000F0E095E0899FE00DF11D1124EE0FFF1FAE
:100A9000EE0FFF1FE60FF11DEE0FFF1FE455FF4F96
:100AA000859194910895FC01EE0FFF1FE45DFC4FCA
:100AB0008591949108950E943F050E94CC069C0167
:100AC000811540E4940708F097C0211580E33807AA
:100AD00008F0FAC0203E310508F074C0203C310512
:100AE00008F0E5C0283A310588F4253A310508F0C8
:100AF000E2C02130310509F477C0C9010497813A79
:100B0000910508F471C030E020E06EC0C901885A38
:100B100091094597C0F7283A310509F4FEC0293AF2
:100B2000310509F4FDC02A3A310509F4FCC02B3A1D
:100B3000310509F4FBC02C3A310509F4FAC02B3B0E
:100B4000310509F4F9C02C3B310509F4F8C02D3A00
:100B5000310509F4F7C0203B310509F4F6C02E3AFF
:100B6000310509F4F5C02F3A310509F4F4C0213BF1
:100B7000310509F4F3C0223B310509F4F2C0233BEF
:100B8000310509F4F1C0243B310509F4F0C0253BDF
:100B9000310509F4EFC0263B310509F4EEC0273BCF
:100BA000310509F4EDC0283B310509F4ECC0293BBF
:100BB000310509F4EBC02A3B310509F4EAC020E015
:100BC00034E412C0211590E2390780F42F3F31053B
:100BD00009F050F4283E310538F0C901805F9109D1
:100BE0003065409708F08FCFC9010895C9019F7003
:100BF0000E9453059C01F8CF8115944508F041C02F
:100C0000211583E5380708F06AC0211592E53907F8
:100C100038F5211541E5340708F05CC0211580E561
:100C2000380708F454C0C90134E0969587953A9581
:100C3000E1F78370422F46954695437090E2499FB5
:100C4000A0011124582B822F837021E030E002C0D4
:100C5000220F331F8A95E2F7242B352B3C68C4CF33
:100C6000C9018370992741E050E002C0440F551F2D
:100C70008A95E2F72695269580E2289F9001112417
:100C8000EBCF211596E5390748F4922F88272115D7
:100C90003545C8F59C01246F306AA6CFC90190562E
:100CA0003F708115904108F02ECF30629DCFC90171
:100CB000805C91099DCF253A310549F1263A3105ED
:100CC00049F522E830E490CF3327306C8DCF3F7068
:100CD000306A8ACF322F2227216F306A85CFC9012F
:100CE0008370992741E050E002C0440F551F8A9558
:100CF000E2F72695269580E2289F90011124242B67
:100D0000352B3A6871CF88279F719C01CECF21E89F
:100D100030E46ACF23E830E467CF22EE34E464CFD6
:100D200029EE34E461CF2AEE34E45ECF25EB34E4DF
:100D30005BCF26EB34E458CF23EB34E455CF24EBE0
:100D400034E452CF27EB34E44FCF2CEC34E44CCFD7
:100D50002DEC34E449CF23E835E446CF2AE835E4E6
:100D600043CF22E935E440CF24E935E43DCF21E209
:100D700036E43ACF23E236E437CF24E236E434CF08
:100D800025E236E431CF26E236E42ECF27E236E400
:100D90002BCF2AE236E428CF803E910581F1C8F4BA
:100DA0008133910509F462C048F48932910509F450
:100DB00056C08A32910509F460C0089589339105BF
:100DC000B9F082389105A1F08533910509F440C04E
:100DD0000895863E910561F138F4823E9105B1F0A7
:100DE000833E9105E1F00895873E910551F1089504
:100DF000209122022370D9F080EE90E00895209196
:100E0000220220FF14C089E390E00895209122027D
:100E100022FF0DC024FD09C083EE90E008952091CB
:100E2000220222FD31C024FF02C090E080E008953C
:100E30002091220223FFFBCF24FDF7CF87EE90E025
:100E400008952091220223FFEECF86EE90E00895D0
:100E50002091220225FFEBCF89E290E008952091B6
:100E6000220225FFE4CF85E390E00895209122023D
:100E700026FFDDCF8AE290E008952091220226FF2E
:100E8000D6CF81E390E0089582EE90E00895089532
:100E90000F931F93CF938C01FB018281811106C0B8
:100EA000C1E08C2FCF911F910F910895C091430104
:100EB000C11125C00531104799F70E94470781E00D
:100EC000809343010E94CC19909342018093410189
:100ED00010923601109238011092370110923A01A7
:100EE0001092390110923C0110923B0110923E0188
:100EF00010923D011092400110923F01D2CF80919B
:100F00004101909142010E94D819883C910540F618
:100F100080913601E82FF0E0EE0FFF1FE95CFE4FF5
:100F2000118300838F5F80933601C0E0BACF0C94A9
:100F3000BE030C94BF03CF93DF9385B7806885BF52
:100F400085B7806885BFA8E1B1E04DE151E0C1E01F
:100F5000D0E08D91E82FE295EF70F0E061A18F7005
:100F60009E0101C0220F8A95EAF7922F9095962351
:100F700091A382A1822B82A34A175B0751F7A4E1B8
:100F8000B1E061E070E08D91E82FE295EF70F0E064
:100F900041A18F709B0101C0220F8A95EAF7922F21
:100FA0009095942391A382A1822B82A381E0A83102
:100FB000B80749F7109249011092440110924A0172
:100FC0001092450110924B011092460110924C0173
:100FD0001092470110924D0110924801DF91CF917C
:100FE0000C9436056F927F928F929F92AF92BF9230
:100FF000CF92DF92EF92FF920F931F93CF93DF93E5
:1010000034E4632E31E0732E48E1E42E41E0F42E07
:1010100001E010E0DD24D394E301C9903E01DE013C
:101020001E92F70181917F01E82FE295EF70F0E0C9
:1010300091A18F70A80101C0440F8A95EAF7892F0A
:10104000842B81A382A1842E8094882182A380EAAC
:101050008A95F1F764E171E090E080E0EB0139916D
:10106000BE01A32EA2942FE0A222B12CE50128A15B
:101070009C903F70580101C0AA0C3A95EAF7A22251
:1010800020E031F4202F082E01C0220F0A94EAF745
:1010900029292C9301968430910501F781A188219B
:1010A00081A382A1482B42A38C91C81641F0D09213
:1010B0004E010E94CC199093500180934F01D9E4C6
:1010C0006D16D1E07D0609F0A7CF80914E018823EF
:1010D000F1F080914F01909150010E94D81906972C
:1010E000B0F0809144018093490180914501809343
:1010F0004A018091460180934B0180914701809382
:101100004C018091480180934D0110924E010E9444
:10111000380581E0DF91CF911F910F91FF90EF9003
:10112000DF90CF90BF90AF909F908F907F906F9007
:101130000895E82FF0E0E75BFE4F80810895089561
:101140009C01CB016BB1542F509556236BB1462BAC
:101150006FB7F894820F931F2817390711F46FBFE8
:101160000895F90171919F01E8E04BB9000000C0BA
:1011700077FF5BB9770F000000C000C000C05BB90B
:1011800000C0EA9591F7E8CFFC019AB1942B9AB987
:101190009B01220F331F620F731FCF010E94A00813
:1011A00087EC90E00197F1F700C00000089540E15E
:1011B0000C94C408AF92BF92CF92DF92EF92FF924D
:1011C0000F931F93CF93DF937C01E901842F242F8A
:1011D000662309F43FC0C42ED12C8FEF90E0861B0C
:1011E0009109489F8001499F100D1124212F812FC3
:1011F0009927C81AD90A9CE3A92EB12CC701B501B9
:101200000E943726FB01BC01C69EC001C79E900DFF
:10121000D69E900D1124B5010E943726E330F105CA
:1012200009F443C080EFE816F10468F4E130F105F9
:1012300091F13297A1F18CE3E816F10440F180E0DE
:1012400020E040E007C0E430F10599F1842F861BCF
:101250003597A9F7E42FF0E0E75CFB4F4491E22FCC
:10126000F0E0E75CFB4F9491E82FF0E0E75CFB4F88
:10127000E49149839883EA83DF91CF911F910F9185
:10128000FF90EF90DF90CF90BF90AF900895812FA7
:10129000262F210FDFCF812F242F461BDBCF862F58
:1012A000810FE42F412F2E2FD5CFE42FE61B842F63
:1012B000F9CF842F462F410FCDCF88E090E00C94DA
:1012C0007226AB01BC0188E090E00C949026CF938D
:1012D000DF9300D000D0CDB7DEB7E6E1F2E083E0E7
:1012E000808311828FEF8283838380911602909195
:1012F0001702A0911802B091190289839A83AB83D7
:10130000BC83BC01CD010F900F900F900F90DF9127
:10131000CF910C94610970E060E08EE192E00C9452
:10132000D708EF92FF920F931F93CF93DF9300D0D4
:101330000F92CDB7DEB7182FE92EF62E042F80912D
:10134000160290911702A0911802B0911902809391
:101350001A0290931B02A0931C02B0931D0280916D
:10136000160280FF1CC09E012F5F3F4F812F9E2DD4
:101370000E94DA0880911A0210FB87F980931A0202
:10138000169580911B028078182BE0FA17F91093BC
:101390001B02F0921C0200931D020E948B090F9009
:1013A0000F900F90DF91CF911F910F91FF90EF90D1
:1013B00008950F931F93CF93DF9300D000D00F9227
:1013C000CDB7DEB789839D83062F142F8091160237
:1013D00080FF54C0982F9E77923091F589819D812E
:1013E0000E94910980911602B981B0FB87F9809320
:1013F0001602B695809117028078B82B8D8180FBFC
:10140000B7F9B09317020093180210931902809154
:10141000160290911702A0911802B09119028983C7
:101420009A83AB83BC83BC01CD010F900F900F90CA
:101430000F900F90DF91CF911F910F910C94610944
:10144000982F96959F732EE3290F2F73243018F44D
:1014500010911902C7CF965C9F73993018F6881FB8
:101460008827881F909117029D83990F982B998345
:10147000AD81A7FBAA27A0F9AD83B4CF0F900F9041
:101480000F900F900F90DF91CF911F910F910895C2
:10149000E6E1F2E02081221F2227221F309117026D
:1014A000432F440F842F822B37FB992790F90896FE
:1014B00068E671E00E944B26438162810C94D90951
:1014C00020911602221F2227221F30911702432F3C
:1014D000440F842F822B37FB992790F98830910590
:1014E00040F4805A9E4F40911902609118020C946A
:1014F000D909089768E671E00E944B26F4CF609105
:101500001802683F90F4685F80911602881F882750
:10151000881F90911702292F220F97FB992790F986
:1015200040911902822B0C94D9096FEFEDCF609195
:101530001802683090F0685080911602881F882742
:10154000881F90911702292F220F97FB992790F956
:1015500040911902822B0C94D90960E0EDCF4091A3
:101560001902483F90F4485F80911602881F88272F
:10157000881F90911702292F220F97FB992790F926
:1015800060911802822B0C94D9094FEFEDCF409156
:101590001902483090F0485080911602881F882721
:1015A000881F90911702292F220F97FB992790F9F6
:1015B00060911802822B0C94D90940E0EDCFCF93B3
:1015C000DF9300D000D0CDB7DEB79091160290FF28
:1015D00047C09178811132C0926090931602809139
:1015E000160290911702A0911802B09119028983F6
:1015F0009A83AB83BC83BC01CD010E9461098091B9
:101600001602982F9E77923009F510926601881F76
:101610008827881F90911702292F220F97FB99275F
:1016200090F94091190260911802822B0F900F904F
:101630000F900F90DF91CF910C94D909893110F060
:101640009063CBCF8F73880F982BC7CF982F969529
:10165000925C9F739631D8F691E090936601D7CF54
:101660000F900F900F900F90DF91CF910895809180
:10167000E90181608093E90181E0809367010E9424
:101680002E19811104C00E940D190E9467090E9441
:101690005D0960931602709317028093180290936D
:1016A00019026E7761F40E9467090E945D096093D8
:1016B000160270931702809318029093190281E02A
:1016C000809366018091160280FF04C086958F7317
:1016D0000C94DF0A08958091160286958F738F5FB0
:1016E000893108F081E00C94DF0ACF93DF9300D0BA
:1016F00000D0CDB7DEB790911602892F8E7F90FF74
:101700008160809316028091160290911702A09139
:101710001802B091190289839A83AB83BC83BC0100
:10172000CD010E9461098091160280FF0AC0869552
:101730008F730F900F900F900F90DF91CF910C94BB
:10174000DF0A109266019FEFA0E7B2E09150A0403F
:10175000B040E1F700C000000F900F900F900F9085
:10176000DF91CF910C948B09CF93C82F80916401A6
:10177000909165010E94D819EC2FF0E0EB5CFC4FD2
:10178000E491E817190609F010F50E94CC1990931E
:10179000650180936401E0916301F0E0E75CFC4F38
:1017A000449180911602881F8827881F9091170204
:1017B000292F220F97FB992790F960911802822B0D
:1017C0000E949109809163018F5F80936301CF91A3
:1017D0000895CF93C82F80916101909162010E947A
:1017E000D819EC2FF0E0EE5CFC4FE491E8171906F5
:1017F00009F0E8F40E94CC19909362018093610192
:10180000409119026091180280915F0190916001EE
:101810000E94910980915F0190916001019668E6B4
:1018200071E00E9437269093600180935F01CF9111
:101830000895CF93C82F80915D0190915E010E9421
:10184000D819EC2FE695F0E0EE5CFC4FE491E81738
:10185000190609F0B8F40E94CC1990935E018093A8
:101860005D010E948B0980915B0190915C01C0FF3A
:101870000BC0019668E671E00E94372690935C01E8
:1018800080935B01CF9108950197F8CFCF93DF93B9
:10189000C82FDFEF80FFD1E08091590190915A016C
:1018A0000E94D819C695EC2FF0E0E15DFC4FE49161
:1018B000E817190609F088F40E94CC1990935A0190
:1018C000809359010E948B09D13061F480915801B5
:1018D000811106C08FEF80935801DF91CF91089559
:1018E0008150F9CF0E946526CF93C82F8091560171
:1018F000909157010E94D819EC2FF0E0E45DFC4F65
:10190000E491E817190609F0B0F40E94CC199093FD
:101910005701809356010E948B099091000180919C
:101920005501913071F48A3F44F489EF8093550159
:101930008FEF80930001CF910895815080935501DE
:10194000FACF87302CF086E08093550181E0F1CF0B
:101950008F5FF4CF80915301909154010E94D81968
:10196000883E934098F00E94CC1990935401809344
:1019700053018091510190915201019681709927F4
:1019800090935201809351010C948B09089580919A
:101990006601882371F18091160286958F739EE30C
:1019A000980F9F73943018F482500C94B40B9AE300
:1019B000980F9F73933018F486500C94E90B97E3BB
:1019C000980F9F73963018F489500C94190C91E37A
:1019D000980F9F73963018F48F500C94460C9BE22E
:1019E000980F9F73933018F485510C94740C0C94D9
:1019F000AA0C089590936D0180936C010895E09175
:101A00006C01F0916D01309721F00190F081E02D93
:101A1000099480E00895E0916C01F0916D01309798
:101A200021F00280F381E02D09940895E0916C018A
:101A3000F0916D01309721F00480F581E02D09943B
:101A4000089520916A0130916B012817390771F0D0
:101A500090936B0180936A01E0916C01F0916D01AC
:101A6000309721F00680F781E02D099408952091A8
:101A70006801309169012817390771F09093690165
:101A800080936801E0916C01F0916D01309721F035
:101A90000084F185E02D0994089508950C944D0D6E
:101AA0000E94C3190E949B070E94851A0C94370B51
:101AB000BF92CF92DF92EF92FF920F931F93CF933B
:101AC000DF9300D000D00F92CDB7DEB70E94F207AF
:101AD0008FE6C82E81E0D82E10E000E0E02E802FA7
:101AE0000E949908B82EF601F1906F01F81609F4DA
:101AF0005BC08091E90181FD0E949F0830E020E0F9
:101B0000FB244F2D50E0922FBA01022E02C0759592
:101B100067950A94E2F760FF41C02983EA8221E0D9
:101B200030E0790102C0EE0CFF1C9A95E2F72B2DF4
:101B300030E02E213F2181E0232B09F480E08B83CC
:101B40000E94CC198160782F9D838C8349815A81B2
:101B50006B818D810E94FA0DF801E159FE4F808161
:101B60008E2580830E94321D0E94FF0C90916E0191
:101B7000891789F10E94FF0C80936E010F900F90DE
:101B80000F900F900F90DF91CF911F910F91FF90C9
:101B9000EF90DF90CF90BF900C943C052F5F3F4FAC
:101BA0002430310509F0AFCF0F5F1F4F053011050D
:101BB00009F094CF8FEF89838A831B820E94CC190E
:101BC0008160782F9D838C8349815A816B818D81BF
:101BD0000E94FA0DC7CF0F900F900F900F900F90AB
:101BE000DF91CF911F910F91FF90EF90DF90CF90F9
:101BF000BF900895CF93DF93CDB7DEB72B970FB685
:101C0000F894DEBF0FBECDBF4F83588769877A87B0
:101C10008B871E8285E0FE013796DE0111960190CA
:101C20000D928A95E1F749815A816B817C818D8182
:101C30009E812B960FB6F894DEBF0FBECDBFDF910D
:101C4000CF910C947114882309F4D8C0823871F4B0
:101C50000E94FF0C81FDD2C089E30E9414180E94EB
:101C6000DE1889E30E9451180C94DE18833859F469
:101C70000E94FF0C80FDC2C083E50E9414180E94E0
:101C8000DE1883E5EFCF843859F40E94FF0C82FD03
:101C9000B5C087E40E9414180E94DE1887E4E2CFE2
:101CA0009CEF980F913A18F40E941418DDCF90E23F
:101CB000980F983050F4877091E001C0990F8A9581
:101CC000EAF7892F0E949518CFCF9BE5980F9330A4
:101CD00070F4853A31F0863A39F083E890E00C945C
:101CE000210D81E890E0FBCF82E890E0F8CF98E505
:101CF000980F953108F082C0883A09F440C0893ABB
:101D000009F440C08A3A09F440C08B3A09F440C053
:101D10008C3A09F440C08B3B09F440C08C3B09F479
:101D200040C08D3A09F440C0803B09F440C08E3A6F
:101D300009F440C08F3A09F440C0813B09F440C027
:101D4000823B09F440C0833B09F440C0843B09F462
:101D500040C0853B09F440C0863B09F440C0873B46
:101D600009F440C0883B09F440C0893B09F440C0F5
:101D70008A3B09F440C090E080E00C94370D82EE7D
:101D800090E0FBCF89EE90E0F8CF8AEE90E0F5CFBF
:101D900085EB90E0F2CF86EB90E0EFCF83EB90E025
:101DA000ECCF84EB90E0E9CF87EB90E0E6CF8CECD2
:101DB00090E0E3CF8DEC90E0E0CF83E891E0DDCFE1
:101DC0008AE891E0DACF82E991E0D7CF84E991E027
:101DD000D4CF81E292E0D1CF83E292E0CECF84E211
:101DE00092E0CBCF85E292E0C8CF86E292E0C5CF09
:101DF00087E292E0C2CF8AE292E0BFCF08958823C3
:101E000009F44BC0823871F40E94FF0C81FF45C079
:101E100089E30E9414180E94DE1889E30E94511879
:101E20000C94DE18833859F40E94FF0C80FF35C0F3
:101E300083E50E9414180E94DE1883E5EFCF8438F2
:101E400059F40E94FF0C82FF28C087E40E941418F6
:101E50000E94DE1887E4E2CF9CEF980F913AF0F2EF
:101E600090E2980F983050F4877091E001C0990F7C
:101E70008A95EAF7892F0E949B18D2CF9BE5980F8D
:101E8000933020F490E080E00C94210D885A853145
:101E900020F490E080E00C94370D0895882321F021
:101EA0000E9495180C94DE180895882321F00E9452
:101EB0009B180C94DE1808958F929F92AF92BF9258
:101EC000DF92EF92FF920F931F93CF93DF9300D097
:101ED00000D00F92CDB7DEB77C016D837983FC0112
:101EE000058102950F70128111110E94B4180E9491
:101EF0000D18D82E882371F01123A1F08D81805EFA
:101F0000883080F082E00E94F7170E940D1891E05F
:101F1000D82ED926E981E295EF70F0E0E153F94D32
:101F20000C945F26D12CF6CF09810F70F981F07FD8
:101F300011F00295007F1123B1F0002361F08D8133
:101F4000805E883018F02D81211109C0802F0E94F9
:101F500095180E94DE188D810E94230E15C0802FD7
:101F60000E94A618F6CF8D810E94FF0E002361F01B
:101F70008D81805E883018F03D81311129C0802F1D
:101F80000E949B180E94DE18DD2009F4D3C10E9434
:101F9000EA1780FDCFC1F70112820E94E4170E9468
:101FA0002F16C7010E94AB110E94E4170F900F90EB
:101FB0000F900F900F90DF91CF911F910F91FF9095
:101FC000EF90DF90BF90AF909F908F900C94511640
:101FD000802F0E94AC18D6CF49814F70B42E598102
:101FE000507F503219F0B29480EFB8228D8188234F
:101FF00069F0813029F1112369F1002359F0F701CB
:10200000858180FFA8CF8F70858304C0112361F084
:10201000011104C08B2D0E944E0FB6CF8B2D0130C5
:10202000D1F70E94C818B0CF011106C00E94CB188A
:102030008B2D0E94550FA8CF013009F4A5CFF6CF04
:10204000112321F0063008F09FCFE4CF053008F0CF
:102050009BCFEECF002361F38D810E94FF0E94CFC2
:10206000898186958695837069F0813009F08CCFDF
:102070008D8199819370111102C090E080E00E94DF
:10208000370D82CF8D8199819370111102C090E03C
:1020900080E00E94210D78CF8D81112329F00E94CC
:1020A000401C0E94271D70CF0E94A81CFACF898176
:1020B000837009F05FC0111167CF2D81229526959D
:1020C0002770220F220F8D818F7090E0B0E0A0E08A
:1020D0004C015D01022E04C0880C991CAA1CBB1C7B
:1020E0000A94D2F7FD8160E070E0CB01F4FF0FC0ED
:1020F0006FE070E080E090E004C0660F771F881FFB
:10210000991F2A95D2F760957095809590952981B1
:102110002695269523702D832230B1F0233019F1B6
:102120009B01AC01282939294A295B2929833A8353
:102130004B835C833D8169817A818B819C813130C5
:10214000B1F00E94BC1520CF9B01AC012829392990
:102150004A295B2929833A834B835C83CA01B901ED
:102160000E94E61511CF0E94BC15C501B4010E9462
:1021700092150ACF8695112311F0898181708823E9
:1021800009F402CF2D81229526952770220F220F68
:102190008D818F7090E0B0E0A0E04C015D01022ED7
:1021A00004C0880C991CAA1CBB1C0A94D2F73D8160
:1021B00060E070E0CB0134FF0FC06FE070E080E0C2
:1021C00090E004C0660F771F881F991F2A95D2F7E9
:1021D0006095709580959095498146954695437098
:1021E0004D834230B1F0433019F19B01AC012829F5
:1021F00039294A295B2929833A834B835C833D81B2
:1022000069817A818B819C813130B1F00E94C21644
:10221000BBCE9B01AC01282939294A295B29298396
:102220003A834B835C83CA01B9010E94EC16ACCEA1
:102230000E94C216C501B4010E949816A5CE3D8128
:10224000323F09F447C080F4303F79F1313FD9F192
:10225000832F805E8031D0F0112309F456C0011124
:102260007ACE89818F7133C04D81433FD1F1443F94
:1022700099F7112309F43FC089818F7189830E94E6
:102280002F1663E089810E94EE177ECE5D815F701C
:102290005D8389818F71112321F00E942F168D811A
:1022A000BACE0E9451168D81C4CE112341F0053063
:1022B00008F06ACE89818F710E94761665CE06304D
:1022C00008F062CEF7CF89818F71112339F00E9417
:1022D0002F165ACE89818F711123C9F30E9451168E
:1022E00053CE112329F089818F710E941A164CCE8A
:1022F0000E94101649CE81E00E94F717023008F4C0
:1023000043CE82E00E94F7173FCE0111A5CE89810E
:102310008F71E4CF49814F706D81C7010E94BB036B
:102320000E940B1531CE49814F706D81C7010E940B
:102330003E052ACE0F900F900F900F900F90DF91D7
:10234000CF911F910F91FF90EF90DF90BF90AF90D2
:102350009F908F9008950F931F93CF93DF93EC017D
:102360008B819C81892B29F08881998189238F3FDA
:1023700029F4DF91CF911F910F910895CE010E9412
:10238000D4038823B1F3688179818A810E94BA17C6
:102390008C010E9416170E948715B801CE01DF91AB
:1023A000CF911F910F910C945C0F0E94B4180E9462
:1023B000C5180E9487180E94DE180E94181E0E94ED
:1023C000271D90E080E00E94210D90E080E00C94B9
:1023D000370D0E94A3180C94D5110E94AE17282F18
:1023E000892F82958F70903C80F48A30B0F48430CD
:1023F00020F4823090F480E008958630E1F781E0A7
:10240000203E88F0213FB9F70EC08C3011F08F309C
:1024100091F793FB882780F9089581E0203F39F0F8
:1024200018F4203E40F70895243F29F7FCCF089583
:10243000CF93DF9300D000D00F92CDB7DEB70F90CF
:102440000F900F900F900F90DF91CF910895CF9341
:10245000DF9300D000D000D0CDB7DEB726960FB600
:10246000F894DEBF0FBECDBFDF91CF9108951F93CB
:10247000CF93DF93E091750116E0809176018E1382
:1024800004C0DF91CF911F910895CE2FD0E01E9F01
:10249000F0011124E958FE4F40815181628173811E
:1024A000848195810E942712FE013196E770E5CF65
:1024B0004091A7015091A8016091A9017091AA01D2
:1024C0008091AB019091AC010C9427121F93CF9394
:1024D000DF938091AC01807FC1F48091A9018823B2
:1024E000A1F080917501C09176016091A701709172
:1024F000A8014091AA015091AB01D62FD723DA0150
:10250000A095B09516E0C81304C0DF91CF911F913C
:10251000089590E04115510511F0DF3F31F4019627
:102520008770F1CF2A0F3B1F17C0189FF001199F2A
:10253000F00D1124E958FE4F21812713F0CF20819F
:102540002613EDCF22812111EACF23813481241774
:10255000350740F3241B350B283C310500F720914B
:10256000AC012F7020612093AC0126E0289FF00180
:10257000299FF00D1124E458FE4F80818F708061F7
:10258000808387EA91E00E94AB11DF91CF911F9188
:102590000C9437129F92AF92BF92CF92DF92EF923C
:1025A000FF920F931F93CF93DF93CDB7DEB72B9797
:1025B0000FB6F894DEBF0FBECDBF8C0185E0F801E9
:1025C000DE01179601900D928A95E1F7D8014C91A2
:1025D00011965C9111971296EC9012978091AA0136
:1025E0009091AB01009709F46BC12091A701309144
:1025F000A801632F62236F3F09F462C11396CD9047
:10260000DC909090A901992009F4F8C0C816D90669
:1026100008F43FC0F601E81BF90BCF01FF24F39447
:10262000883C910508F0F12C87EAA82E81E0B82EAD
:102630008091AC01982F907FFF2009F4B7C09111D1
:1026400080C0FE2C35132AC0241328C0E11026C0F8
:102650008F7080618093AC010E945812C5010E9466
:10266000AB118091AC01D80115968C938F2D2B96D0
:102670000FB6F894DEBF0FBECDBFDF91CF911F9193
:102680000F91FF90EF90DF90CF90BF90AF909F9011
:102690000895809590958C0D9D1DC0CFCD2829F073
:1026A000842F85238F3F09F019C180E0B82FB170C6
:1026B000DB2EE09175012091760136E080FD1CC093
:1026C000EE20A1F28091AC0181608093AC01F12CED
:1026D000CDCF8E2F90E03E9FF0011124E958FE4FA0
:1026E0006181651306C06081641303C062816E114D
:1026F000E7CFFC013196E770E213EBCF4F835887A9
:102700008F8198850E94AE17292F22952F709032C5
:1027100060F0225F2F70223078F49F7051F0F80142
:102720009581907F31F4D12C0AC09F7011F08823DD
:10273000D1F3805E8830B8F3C8010E94AB11FD2C44
:1027400095CF351306C0241304C0D801EE2009F438
:102750007BC04F8358878F8198850E94ED11882315
:1027600009F4B8C0EE2009F4B5C08091AC01803204
:1027700070F02091A7013091A8013A8329831B8230
:10278000DD82CC828E83CE0101960E94AB1186E061
:10279000F801A7EAB1E001900D928A95E1F70E9455
:1027A00066120E945812FF24F39460CF911113C057
:1027B0007C2DDB86CA866E2D8B850E94181287EAD7
:1027C00091E00E94AB1186E0F50111928A95E9F73C
:1027D0000E9458124BCF3513BCCF2413BACFE1104F
:1027E000B8CFD80115968C93C8010E94AB1186E032
:1027F000F50111928A95E9F7F92C38CFC816D90658
:1028000088F1B601681B790BCB01F12C883C91054E
:1028100008F047C0FE2CEE2009F45CC0351330C030
:1028200024132EC08091AC0180FD21C0982F907F91
:10283000F1F0D80115968C931597903F39F0982FA9
:10284000907F905F8F70892B15968C93C8010E94A2
:10285000AB1186E0F801A7EAB1E001900D928A95EC
:10286000E1F7B6CF809590958C0D9D1DCECF86E07B
:10287000F801A7EAB1E001900D928A95E1F7F6CE52
:102880004F8358878F8198850E94ED1181117FCFEA
:102890008091AC0181608093AC01C8010E94AB11B2
:1028A000E5CE7C2DDB86CA866E2D8B850E941812A4
:1028B00086E0E7EAF1E0DF011D928A95E9F788CF2B
:1028C000EE2041F04F8358878F8198850E94ED114B
:1028D00081115DCFC8010E94AB1165CF81E08E25CB
:1028E000E5CE1F93CF93DF93CDB7DEB72C970FB60E
:1028F000F894DEBF0FBECDBF4F83588769877A87B4
:102900008B879C87CE0107960E94CA12882369F0A4
:102910008A859B85892B39F04F815885842F8523A3
:102920008F3F09F071C016E05FC086E0FE01379668
:10293000DE01119601900D928A95E1F78A859B85BB
:10294000892B89F388859F8189238F3F61F32091AB
:10295000760130E0C9010196877099274091750191
:102960004817190671F40E94E9111092760110922D
:10297000750186E0E7EAF1E0DF011D928A95E9F74B
:10298000D2CF96E0929FD001939FB00D1124A95809
:10299000BE4FFE01319601900D929A95E1F780931A
:1029A00076010E943712BFCF819FC0011124895840
:1029B0009E4F0E94CA128823E9F0E09175011E9F84
:1029C000F0011124E958FE4F4081518162817381E9
:1029D000848195810E9427128091750190E0019673
:1029E0008770992780937501809175019091760188
:1029F0008913DACF2C960FB6F894DEBF0FBECDBF89
:102A0000DF91CF911F91089569857A858B859C858B
:102A10000E94271288CFEF92FF920F931F93CF93BC
:102A2000DF938C01892B89F0F12CEE24E394E801EB
:102A30002196F8018491843709F457C0A0F48230BC
:102A400009F43EC048F48130D1F0DF91CF911F915D
:102A50000F91FF90EF9008959CEF980F9037A8F793
:102A60000E94230E0AC0853709F44CC09CE7980FDA
:102A7000903758F78F770E94FF0E8E0116C00E5FB9
:102A80001F4FFE01849190E2980F983060F4877098
:102A9000FE2D01C0FF0F8A95EAF78F2F0E94B7180D
:102AA0000E94DE1802C00E94230E8F2D815008F470
:102AB000BECFEFE9FFE03197F1F700C00000F6CF9D
:102AC0000E5F1F4FFE01849190E2980F983050F4F2
:102AD0008770FE2D01C0FF0F8A95EAF78F2F0E94A5
:102AE000BD18DECF0E94FF0EE0CF0E5F1F4FFE012C
:102AF000C491C150D0F28FE99FE00197F1F700C077
:102B00000000F7CF0E5F1F4FFE01F490CECF089567
:102B10006093C0017093C1018093C2019093C3017F
:102B20000C94D511CF93DF9300D000D0CDB7DEB792
:102B300069837A838B839C838091C0019091C101CA
:102B4000A091C201B091C30129813A814B815C817E
:102B5000822B932BA42BB52B8093C0019093C101A2
:102B6000A093C201B093C3010F900F900F900F90EC
:102B7000DF91CF910C94D511CF93DF9300D000D08B
:102B8000CDB7DEB769837A838B839C838091C00144
:102B90009091C101A091C201B091C30129813A81F4
:102BA0004B815C8182239323A423B5238093C001AE
:102BB0009093C101A093C201B093C3010F900F90F5
:102BC0000F900F90DF91CF910C94D511CF93DF939D
:102BD00000D000D0CDB7DEB769837A838B839C8326
:102BE0008091C0019091C101A091C201B091C30137
:102BF00029813A814B815C8182279327A427B527BD
:102C00008093C0019093C101A093C201B093C3010E
:102C10000F900F900F900F90DF91CF910C94D511E2
:102C20001092BC011092BD011092BE011092BF0122
:102C30000C94D51141E050E060E070E004C0440F16
:102C4000551F661F771F8A95D2F74093BC0150939A
:102C5000BD016093BE017093BF010C94D511282F64
:102C600081E090E0A0E0B0E004C0880F991FAA1FA7
:102C7000BB1F2A95D2F74091BC015091BD016091D4
:102C8000BE017091BF01842B952BA62BB72B80938F
:102C9000BC019093BD01A093BE01B093BF010C9401
:102CA000D51141E050E060E070E004C0440F551FD2
:102CB000661F771F8A95D2F740955095609570955D
:102CC0008091BC019091BD01A091BE01B091BF0166
:102CD00084239523A623B7238093BC019093BD0141
:102CE000A093BE01B093BF010C94D511282F81E0B1
:102CF00090E0A0E0B0E004C0880F991FAA1FBB1F9E
:102D00002A95D2F74091BC015091BD016091BE015E
:102D10007091BF0184279527A627B7278093BC0110
:102D20009093BD01A093BE01B093BF010C94D51147
:102D3000CF93DF9300D000D0CDB7DEB769837A831D
:102D40008B839C838091BC019091BD01A091BE01B9
:102D5000B091BF0129813A814B815C81822B932BF9
:102D6000A42BB52B8093BC019093BD01A093BE0111
:102D7000B093BF010F900F900F900F90DF91CF9104
:102D80000C94D511CF93DF9300D000D0CDB7DEB730
:102D900069837A838B839C838091BC019091BD0170
:102DA000A091BE01B091BF0129813A814B815C8124
:102DB00082239323A423B5238093BC019093BD0168
:102DC000A093BE01B093BF010F900F900F900F9092
:102DD000DF91CF910C94D511CF93DF9300D000D029
:102DE000CDB7DEB769837A838B839C838091BC01E6
:102DF0009091BD01A091BE01B091BF0129813A819E
:102E00004B815C8182279327A427B5278093BC013F
:102E10009093BD01A093BE01B093BF010F900F909E
:102E20000F900F90DF91CF910C94D5110895E92F59
:102E3000EE0FEE0FE80F8E2F877041E001C0440FB8
:102E40008A95EAF7E695E695E69585E0E89FF00134
:102E50001124E355FE4F30E020E070E05191DF0196
:102E60001197CB01022E02C0969587950A94E2F73E
:102E7000817081958527842385278C932F5F3F4F11
:102E80002530310559F70895E92FEE0FEE0FE80FC1
:102E90009E2F9770E695E695E69585E0E89FF00110
:102EA0001124E355FE4F50E040E080E0219130E0F6
:102EB000092E02C0369527950A94E2F72170332730
:102EC000042E01C0220F0A94EAF7822B4F5F5F4F56
:102ED0004530510559F70895BF92CF92DF92EF9296
:102EE000FF920F931F93CF93DF938C01C090BC018F
:102EF000D090BD01E090BE01F090BF018091C00173
:102F00009091C101A091C201B091C301C82AD92AF0
:102F1000EA2AFB2ACFE1D0E0BC2ED701C6010C2E55
:102F200004C0B695A795979587950A94D2F780FD2A
:102F30000EC0219788F7B12C8B2DDF91CF911F9177
:102F40000F91FF90EF90DF90CF90BF900895B80160
:102F50008C2F0E945B05019761F3EECFCF93DF9337
:102F6000D82FC92F0E946C176D2F7C2FDF91CF9126
:102F70000C945B051F93CF93DF93162FD72F90915F
:102F80007401992339F0862F972FDF91CF911F91EC
:102F90000C94AE17882391F0862F972F0E946C1700
:102FA000C82F682F812F9D2F0E941717612F7D2F0B
:102FB0008C2FDF91CF911F910C945B05862F972F5B
:102FC0000E944417C82FF2CF8091C4018595859542
:102FD000859508958091C4018770089598E0899F30
:102FE00090011124622B6093C4010C942F169091D0
:102FF000C401809589238093C401282F277061F430
:10300000282F082E000C330B9217130629F08595F4
:10301000859585950C94511608959091C4019770EB
:1030200081E009F480E00895909113019923E1F083
:103030009091220297FF18C0E82FE695E695E69555
:10304000EF3139F12091010130910201E20FF32FAC
:10305000F11D877021E030E001C0220F8A95EAF768
:103060008181822B81830895209101013091020199
:10307000F90132969FEF40E05191851751F09F3F43
:1030800019F4511101C0942F4F5F4E31A9F79F3FA2
:1030900009F40895290F311D97FD3A95F9018283AE
:1030A000089590911301992301F19091220297FFC5
:1030B0001CC0E82FE695E695E695EF3139F12091B1
:1030C000010130910201E20FF32FF11D877021E021
:1030D00030E0A90102C0440F551F8A95E2F7CA01EA
:1030E00080959181892381830895209101013091F8
:1030F0000201F9013296205E3F4F9191891303C07E
:10310000DF0111971C92E217F307B9F7089581E0E8
:1031100090E0E0910101F0910201E80FF91F1082A7
:10312000019680329105A9F708959091E801982BB6
:103130009093E8010895982F90958091E801892354
:103140008093E80108951092E80108959091E701B5
:10315000982B9093E7010895982F90958091E7011F
:1031600089238093E70108951092E70108959091D3
:10317000E601982B9093E6010895982F9095809101
:10318000E60189238093E60108951092E6010895EF
:103190008093C50108951092C50108952091010101
:1031A00030910201F9013196205E3F4F80E091910C
:1031B00091118F5FE217F307D1F70895E0910101B4
:1031C000F09102018091E8018083E0910101F0918A
:1031D000020180819091E701892B8083E0910101B8
:1031E000F091020180819091E601892B808390917A
:1031F000C501992361F0E0910101F0910201808104
:10320000892B80830E94CE1881111092C501809174
:103210000101909102010C940B0D6DEE7EEF90E098
:1032200080E00E949C2660E082E090E00E947E2682
:1032300060E083E090E00E947E2660E084E090E021
:103240000E947E2660E085E090E00E947E2640E0BD
:1032500050E0BA0188E090E00C94902690E080E085
:103260000E9478269C0181E02D3E3E4F09F080E0CF
:10327000089582E090E00C946A26682F82E090E046
:103280000C947E2683E090E00C946A26682F83E0FD
:1032900090E00C947E2684E090E00C946A26682FDF
:1032A00084E090E00C947E2680912802843039F1ED
:1032B0001092EA0188E190E020E40FB6F894A89516
:1032C000809360000FBE2093600080E00E943C0568
:1032D00083B7817F846083BF83B7816083BF789425
:1032E000889583B78E7F83BF0FB6F894A895809199
:1032F0006000886180936000109260000FBE0895A6
:1033000008950895CF930E9480190E94F2070E94A9
:103310008119C0E08C2F0E949908811105C0CF5FF0
:10332000C530C1F7CF91089581E0FCCF0E94E9112B
:103330000E94FF0C0C943C051F921FB61F92112493
:103340008F939F93AF93BF938091EA01811113C034
:1033500080911E0290911F02A0912002B091210243
:103360004196A11DB11D80931E0290931F02A09350
:103370002002B0932102BF91AF919F918F911F9036
:103380001FBE1F90189582E084BD93E095BD9AEF13
:1033900097BD80936E0008952FB7F89480911E0218
:1033A00090911F02A0912002B09121022FBF089599
:1033B000CF92DF92EF92FF929C014FB7F8948091E9
:1033C0001E0290911F02A0912002B09121024FBFD6
:1033D0006C017D01EE24FF24A90170E060E0C416B9
:1033E000D506E606F70638F0821B930BFF90EF90A8
:1033F000DF90CF9008950197F7CF1F921FB61F92CD
:1034000011248F939F93AF93BF9380911E0290914D
:103410001F02A0912002B09121020196A11DB11DB1
:1034200080931E0290931F02A0932002B09321026A
:10343000BF91AF919F918F911F901FBE1F901895C4
:103440000E940E22F8942FEF87EA91E621508040E7
:103450009040E1F700C0000087E090EBDC01809332
:10346000310290933202A0933302B093340288E188
:103470009CE00FB6F894A895809360000FBE9093DF
:103480006000FFCFCF92DF92EF92FF920F931F93D6
:10349000CF93C0E0E82EF12C8C2F0E94990810E009
:1034A00000E0C82ED12CC601002E02C0959587954C
:1034B0000A94E2F780FF11C0602F7C2F80E00E9409
:1034C0003F05E816F90649F481E0CF911F910F916D
:1034D000FF90EF90DF90CF9008950F5F1F4F043063
:1034E000110509F7CF5FC530B9F680E0EECFCF9375
:1034F000C82F8CE20E94421A882321F08C2FCF9192
:103500000C94421A80E0CF910895CF93DF9300D0BE
:1035100000D0CDB7DEB70E942E19811102C00E94E3
:103520000D1995E6998308C00E94F2078FE39CE984
:103530000197F1F700C00000A981A150A983A11152
:10354000F3CF89E20E94771A811110C18AE20E94AA
:10355000771A81110E940D1985E00E94771A811156
:103560000E94201A0E9439198093E90187E00E9485
:10357000771A882371F08BE10E94771A882309F467
:10358000D1C09091E901892F8D7F91FF8260809356
:10359000E9018091E9010E943D190E944B1990E0D8
:1035A000909323028093220280EE0E94771A882350
:1035B00041F090912202892F8E7F90FF816080934D
:1035C000220289E30E94771A882341F09091220217
:1035D000892F8D7F91FF82608093220282EE0E946C
:1035E000771A882341F090912202892F8B7F92FFD6
:1035F00084608093220286EE0E94771A882341F02D
:1036000090912202892F877F93FF88608093220206
:1036100083EE0E94771A882341F090912202892F2D
:103620008F7E94FF80618093220285E30E94771A47
:10363000882341F090912202892F8F7D95FF80622F
:103640008093220281E30E94771A882341F09091AF
:103650002202892F8F7B96FF80648093220281E172
:103660000E94771A882341F090912202892F97FBBC
:1036700087F9805880932202809122020E944F197C
:1036800087E20E94771A89838EE10E94771A882345
:1036900019F0B981B260B9838FE10E94771A88234B
:1036A00019F029812460298380E20E94771A8823F7
:1036B00019F039813860398381E20E94771A8823B2
:1036C00019F049814061498382E20E94771A882378
:1036D00019F059815062598383E20E94771A882336
:1036E00019F089818064898384E20E94771A882393
:1036F000B1F199819068998389810E944619398135
:10370000232F30E050E040E029833A834B835C83F1
:10371000CA01B9010F900F900F900F90DF91CF91D8
:103720000C9488158EE00E94771A882339F09091C6
:10373000E901892F8B7F92FF846029CF80E10E946D
:10374000771A9091E901882329F0892F877F93FFC9
:1037500088601DCF892F8E7F90FF816018CFA9814F
:10376000A111CACF0E944219282FCBCF0F900F90E2
:103770000F900F90DF91CF9108958091ED0180FF20
:1037800012C06091060185E0689FB0011124759513
:1037900067957595679560387105A8F56115710590
:1037A000A1F1862F089581FF09C06091060185E08F
:1037B000689FB001112475956795EDCF6091060162
:1037C00082FD0AC08091EE018823D1F0909105011D
:1037D00060910601891728F085E0689FB0011124E7
:1037E000DACF869FB001112485E0869F9001879FE4
:1037F000300D1124692F70E0C9010E944B26CBCFF8
:1038000065E070E0CECF8FE7089581E00895809164
:10381000ED0180FF0CC06091040170E07595679523
:10382000759567956115710549F1862F089581FF9A
:1038300006C06091040170E075956795F3CF6091C3
:10384000040182FD0BC09091EE019923A1F06091DB
:10385000030180910401961738F0682F70E06038FA
:10386000710500F38FE70895899FC001112470E06E
:103870000E944B26F4CF61E070E0D7CF81E008953D
:10388000803F31F40E94BD1B81958093F101089522
:10389000813F19F40E94BD1BF8CF823F31F40E9492
:1038A000BD1B81958093F0010895833F19F40E9418
:1038B000BD1BF8CF893F29F40E94071C8093F201B9
:1038C00008958A3F21F40E94071C8195F7CF8B3F12
:1038D00031F40E94071C81958093F30108958C3F79
:1038E00019F40E94071CF8CF843F31F48091EF0156
:1038F00081608093EF010895853F21F48091EF016D
:103900008260F7CF863F21F48091EF018460F1CF90
:10391000873F21F48091EF018860EBCF883F21F44D
:103920008091EF018061E5CF8D3F31F48091ED0111
:1039300081608093ED0108958E3F21F48091ED0127
:103940008260F7CF8F3FB9F78091ED018460F1CFAE
:103950009091F001803F41F48091F10187FD109238
:10396000F101992371F00895813F29F48091F101CB
:103970001816ACF3F6CF823F81F497FFF2CF109286
:10398000F0018091F1019091F201892B9091F30166
:10399000892B49F71092EE010895833F19F4191607
:1039A00074F3DFCF893F39F48091F2011816CCF619
:1039B0001092F201D6CF8A3F29F48091F20187FF5D
:1039C000D0CFF6CF8B3F39F48091F30187FFC9CF79
:1039D0001092F301C6CF8C3F29F48091F3011816A1
:1039E000BCF3BFCF843F31F48091EF018E7F809391
:1039F000EF01B7CF853F21F48091EF018D7FF7CFA5
:103A0000863F21F48091EF018B7FF1CF873F21F436
:103A10008091EF01877FEBCF883F21F48091EF0108
:103A20008F7EE5CF8D3F31F48091ED018E7F8093C5
:103A3000ED0197CF8E3F21F48091ED018D7FF7CF7F
:103A40008F3F09F08ECF8091ED018B7FF0CF8FEE0D
:103A500091E00E94160D0E94CC199093EC01809386
:103A6000EB0108951F93CF93DF9300D000D000D0D7
:103A7000CDB7DEB78091EB019091EC010E94D8198F
:103A8000AC018091EE012091070130E0811106C068
:103A9000209108019AE0299F9001112442175307B1
:103AA00088F02091F001A091F101A9831091F20119
:103AB000B091F301BE8321110FC09A2F912B9B2B44
:103AC00009F0B2C026960FB6F894DEBF0FBECDBF88
:103AD000DF91CF911F9108958F3F19F08F5F8093F1
:103AE000EE01121624F40E94BD1B8093F001809118
:103AF000F00187FF05C00E94BD1B81958093F001F6
:103B00002981121624F40E94BD1B8093F10180913B
:103B1000F10187FF05C00E94BD1B81958093F101D3
:103B20008091F001882309F455C03091F1013D8363
:103B3000332309F44FC0282F880F330B440B550B48
:103B400029833A834B835C83CA01B9010E943E25D5
:103B500023E333E343E35FE369837A838B839C83CB
:103B600069817A818B819C810E94A22569837A83F5
:103B70008B839C8369817A818B819C810E9406253D
:103B80006093F0018D81082E000C990BAA0BBB0BE2
:103B900089839A83AB83BC83BC01CD010E943E25FF
:103BA00023E333E343E35FE369837A838B839C837B
:103BB00069817A818B819C810E94A22569837A83A5
:103BC0008B839C8369817A818B819C810E940625ED
:103BD0006093F101111624F40E94071C8093F201F6
:103BE0008091F20187FF05C00E94071C8195809398
:103BF000F2019E81191624F40E94071C8093F301A0
:103C00008091F30187FF05C00E94071C8195809376
:103C1000F30126960FB6F894DEBF0FBECDBFDF913D
:103C2000CF911F910C94271D8F3F09F057CF68CF7C
:103C300085E0EFEEF1E0DF011D928A95E9F7109241
:103C4000EE011092ED010895809114020895CF9332
:103C5000DF9300D00F92CDB7DEB720912802243039
:103C600019F523E029838A839B832093E9008FEF52
:103C70009091E800815095FD06C095ED9A95F1F779
:103C800000008111F5CF8091E80085FF0DC050E064
:103C900040E063E070E0CE0101960E9486208091B2
:103CA000E8008E778093E8000F900F900F90DF91DF
:103CB000CF910895CF93DF9300D00F92CDB7DEB7A9
:103CC0009C0180912802843031F582E0898320585C
:103CD00031093B832A8383E08093E9008FEF909141
:103CE000E800815095FD06C095ED9A95F1F700002A
:103CF0008111F5CF8091E80085FF0DC050E040E0D4
:103D000063E070E0CE0101960E9486208091E80079
:103D10008E778093E8000F900F900F90DF91CF91F6
:103D20000895209128022430F1F422E02093E90044
:103D30002FEF3091E800215035FD06C035ED3A9562
:103D4000F1F700002111F5CF2091E80025FF0BC00D
:103D500050E040E065E070E00E9486208091E8003D
:103D60008E778093E8000895CF93DF93D82FC92FE3
:103D7000809128028430F1F4909113019923E9F0A5
:103D80009091220297FF19C08093E9008FEF9091E4
:103D9000E800815095FD06C095E19A95F1F7000085
:103DA0008111F5CF8091E80050E040E060E270E0E2
:103DB00085FD1AC0DF91CF91089581E08093E900DD
:103DC0008FEF9091E800815095FD06C095ED9A9592
:103DD000F1F700008111F5CF8091E80085FFEACF6F
:103DE00050E040E068E070E08D2F9C2F0E9486201C
:103DF0008091E8008E778093E80080E2ED2FFC2F21
:103E0000A4EFB1E001900D928A95E1F7D3CF8091B4
:103E10002702811109C00E940E220E946B2280910C
:103E2000E20084608093E2000895109227020895D2
:103E3000089508950C94961942E061EC81E00E9487
:103E40008A2142E061EC82E00E948A2142E061EC3A
:103E500083E00E948A2142E261EC84E00C948A2192
:103E600080912A02893089F148F4823009F494C0A3
:103E7000833009F44FC0813041F008958A3009F44D
:103E80007BC08B3009F461C0089580912902813A8A
:103E900009F03FC08091E800877F8093E80080911F
:103EA0002D0290912E02892B61F460E284EF91E063
:103EB00070E00E94D5208091E8008B778093E80025
:103EC000089560E090E080E0F3CF80912902813294
:103ED00001F580912D0290912E02009711F0039729
:103EE000C1F48091E800877F8093E8008091E8002A
:103EF00082FF0BC08091F100809314028091E80052
:103F00008B778093E8000C94BE2180912802811168
:103F1000EDCF089580912902813AD9F780912D0241
:103F200090912E02892BA9F78091E800877F8093DA
:103F3000E8008091E80080FFFCCF8091130180931E
:103F4000F1008091E8008E77DCCF809129028132E8
:103F500001F780912D0290912E02892BD1F680914C
:103F6000E800877F8093E8000E94BE2180912B02A9
:103F7000809313010C94E91180912902813249F652
:103F80008091E800877F8093E8000E94BE218091A5
:103F90002C0280931502089580912902813A09F03C
:103FA000B8CF8091E800877F8093E8008091E80097
:103FB00080FFFCCF80911502C2CF84B7877F84BF7A
:103FC0000FB6F894A8958091600088618093600096
:103FD000109260000FBE80E8809361001092610033
:103FE0000E944E0D0E940E220E946B228091E200E0
:103FF00084608093E20078940E94EB240E94500D2C
:1040000089E091E00E94FA0C80912802853029F025
:104010000E94580D0E94C70CF7CF0E94541980913E
:104020002602882389F30E948219882369F30E945B
:104030007020EACF9C01DA01892F992783309105FE
:10404000C1F068F48130910509F445C0029761F42C
:104050008DE690E029E635E02D933C93089581327A
:104060009105E1F0829739F190E080E030E020E0C6
:10407000F3CFC9019927213059F08230910559F0C9
:10408000E5E6F5E0892B81F7849190E09F01E4CF8C
:10409000EDE4F5E0F9CFE9E3F5E0F6CF643020F7A1
:1040A000E62FF0E0EE0FFF1FE75DFE4F208131812C
:1040B00089E090E0D1CF6430B8F670E0FB01EE0FFC
:1040C000FF1FEF5DFE4F20813181635E7E4FFB015C
:1040D000808190E0C1CF82E190E026ED35E0BCCF59
:1040E00080E189BD82E189BD09B400FEFDCF8091E8
:1040F000D8008F7D8093D8008091E000826080930B
:10410000E0008091E00081FDFCCF0895AF92BF9266
:10411000CF92DF92FF920F931F93CF93DF936C01A7
:10412000EB018A010E94DD21F82E811123C00115C7
:10413000110539F0F80180819181C81BD90BC80E97
:10414000D91EB12CA12C2097A9F08091E80085FD03
:1041500022C08091E8008E778093E8000115110558
:10416000A1F0F80180819181A80EB91EB182A082D0
:1041700085E0F82E8F2DDF91CF911F910F91FF9049
:10418000DF90CF90BF90AF9008950E94DD218823EB
:10419000D1F2F82EEFCFF60181916F018093F100FB
:1041A0002197FFEFAF1ABF0ACECFFC01CB012091C0
:1041B0002F02309130022617370790F0009729F42C
:1041C0002091E8002E772093E80040E0009751F41A
:1041D000411108C08091E80082FF31C080E008955D
:1041E000C901F3CF209128022223A9F12530A9F19A
:1041F0002091E80023FD2DC02091E80022FDEACFA8
:104200002091E80020FFE2CF3091F3002091F200EE
:10421000009719F02830310558F041E02830310579
:1042200009F040E02091E8002E772093E800CECFFF
:1042300041914093F10001972F5F3F4FE9CF80916B
:104240002802882341F0853041F08091E80083FF07
:10425000C1CF81E0089582E0089583E00895FC01D4
:10426000CB0120912F02309130022617370790F0B2
:10427000009729F42091E8002E772093E80040E091
:10428000009751F4411108C08091E80082FF32C0CC
:1042900080E00895C901F3CF209128022223B1F1D3
:1042A0002530B1F12091E80023FD2EC02091E800D7
:1042B00022FDEACF2091E80020FFE2CF3091F30009
:1042C0002091F200009719F02830310558F041E0B4
:1042D0002830310509F040E02091E8002E77209346
:1042E000E800CECF44914093F100319601972F5FC3
:1042F0003F4FE8CF80912802882341F0853041F07C
:104300008091E80083FFC0CF81E0089582E00895A6
:1043100083E00895982F973028F08F708093E900FC
:1043200081E008959093E900242F762F50E09817AC
:1043300031F07091EC002091ED005091F00021FDE2
:1043400002C09F5FE8CF3091EB003E7F3093EB00DF
:104350003091ED003D7F3093ED003091EB00316006
:104360003093EB007093EC002093ED005093F0003D
:104370002091EE0027FDE5CF80E00895809129028D
:1043800087FF13C08091E80082FF06C08091E8009B
:104390008B778093E80004C0809128028111F2CFCE
:1043A0000895809128028823D9F38091E80080FF46
:1043B000F8CF8091E8008E77ECCF2091E400309127
:1043C000E50095E6A9012091EC00822F817020FF85
:1043D00006C08091E80080FF06C080E0089520912B
:1043E000E80022FD1AC080912802882389F08530D8
:1043F00089F08091EB0085FD0FC02091E4003091A1
:10440000E50042175307F9F29150E1F684E0089570
:1044100082E0089583E0089581E008950E947C225F
:104420000E948422E0EEF0E0808181608083E8EDEC
:10443000F0E080818F77808319BCA7EDB0E08C918C
:104440008E7F8C9380818F7E8083109227020895C7
:104450000F931F93CF93DF930E947C220E948422AC
:10446000C8EDD0E088818F778883888180688883D1
:1044700088818F7D888319BC1092280210922402B3
:10448000109226021092250200EE10E0F8018081C1
:104490008B7F808388818160888342E060E080E058
:1044A0000E948A21E1EEF0E080818E7F8083E2EE3F
:1044B000F0E0808181608083808188608083F80162
:1044C00080818E7F8083888180618883DF91CF9116
:1044D0001F910F910895E8EDF0E080818F7E808339
:1044E000E7EDF0E080818160808384E082BF81E03D
:1044F000809327020C942822E8EDF0E080818E7FE3
:1045000080831092E20008951092DA001092E10088
:1045100008951F920F920FB60F9211242F933F937D
:104520004F935F936F937F938F939F93AF93BF93BB
:10453000EF93FF938091E10082FF0BC08091E20036
:1045400082FF07C08091E1008B7F8093E1000E9491
:10455000EA248091DA0080FF19C08091D80080FFA2
:1045600015C08091DA008E7F8093DA008091D900A7
:1045700080FF94C080E189BD82E189BD09B400FE5D
:10458000FDCF81E0809328020E94071F8091E10007
:1045900080FF19C08091E20080FF15C08091E20089
:1045A0008E7F8093E2008091E20080618093E20040
:1045B0008091D80080628093D80019BC85E08093F8
:1045C00028020E94191F8091E10084FF29C0809178
:1045D000E20084FF25C080E189BD82E189BD09B484
:1045E00000FEFDCF8091D8008F7D8093D800809110
:1045F000E1008F7E8093E1008091E2008F7E8093C6
:10460000E2008091E20081608093E20080912402C8
:10461000882309F449C084E0809328020E941A1F6D
:104620008091E10083FF29C08091E20083FF25C0D3
:104630008091E100877F8093E10082E080932802EF
:10464000109224028091E1008E7F8093E10080919E
:10465000E2008E7F8093E2008091E200806180938F
:10466000E20042E060E080E00E948A218091F00058
:1046700088608093F0000E94181FFF91EF91BF9116
:10468000AF919F918F917F916F915F914F913F91EA
:104690002F910F900FBE0F901F90189519BC10927C
:1046A00028020E94151F72CF8091E30087FD02C08F
:1046B00081E0B2CF83E0B0CF1F920F920FB60F927E
:1046C00011242F933F934F935F936F937F938F9317
:1046D0009F93AF93BF93CF93DF93EF93FF93D091CB
:1046E000E900DF708091EC00C82FC17080FDC0E848
:1046F0001092E9008091F000877F8093F000789419
:104700000E94A0231092E9008091F00088608093BD
:10471000F000CD2BCF70C093E900FF91EF91DF91B6
:10472000CF91BF91AF919F918F917F916F915F9149
:104730004F913F912F910F900FBE0F901F901895A2
:104740001F93CF93DF93CDB7DEB7AA970FB6F89438
:10475000DEBF0FBECDBF89E292E0FC010196209141
:10476000F100208322E081339207B9F70E94301FC5
:104770008091E80083FF16C18091290290912A025E
:104780009A3008F00FC1E92FF0E0E152F94D0C9496
:104790005F26803881F0823809F004C180912D02B3
:1047A0008F708093E9008091EB0085FB882780F96A
:1047B0001092E90006C08091250290912602911185
:1047C00082609091E800977F9093E8008093F100D9
:1047D0001092F1008091E8008E77E0C0882309F400
:1047E000CEC0823009F0DEC080912B028111D1C091
:1047F00080912D028F7009F4D5C08093E90020913B
:10480000EB0020FFC6C0933031F48091EB00806252
:104810008093EB00BEC09091EB0090619093EB0011
:1048200021E030E001C0220F8A95EAF72093EA00E8
:104830001092EA008091EB008860EACF8111B2C04B
:1048400010912B021F778091E3008078812B809359
:10485000E3008091E800877F8093E8000E94BE21FA
:104860008091E80080FFFCCF8091E3008068809316
:10487000E30082E0111183E08093280293C0805806
:10488000823008F08FC080912B0290912C028C3DD9
:1048900023E09207A1F583E08A838AE289834FB7F8
:1048A000F894DE01139620E03EE051E2E32FF0E0C1
:1048B00050935700E49120FF03C0E295EF703F5FF3
:1048C000EF708E2F90E0EA30C0F0C7968D939D93E5
:1048D0002F5F243159F74FBF8091E800877F809385
:1048E000E8006AE270E0CE0101960E94D520809136
:1048F000E8008B778093E80055C0C096E7CFAE0103
:104900004F5F5F4F60912D020E941A20BC01892BDE
:1049100009F448C08091E800877F8093E80089818E
:104920009A810E942F21E3CF8038E1F58091E80041
:10493000877F8093E800809124028093F1004ACF22
:10494000811130C090912B02923060F58091E80087
:10495000877F8093E800909324020E94BE2180917B
:104960002402882311F084E005C08091E30087FDD4
:10497000FACF81E0809328020E941C1F13C080910F
:104980002B02813079F481E0933009F080E080934C
:1049900026021092E9008091E800877F8093E8006A
:1049A0000E94BE218091E80083FF0AC08091E80048
:1049B000877F8093E8008091EB0080628093EB001A
:1049C000AA960FB6F894DEBF0FBECDBFDF91CF9190
:1049D0001F9108950895CF93809128028823A1F014
:1049E000C091E900CF709091EC00892F817090FD0B
:1049F00080E8C82B1092E9008091E80083FD0E94B6
:104A0000A023CF70C093E900CF9108950E940D2597
:104A10006894B1110C949C2508950E94812588F01A
:104A20009F5798F0B92F9927B751B0F0E1F0660F72
:104A3000771F881F991F1AF0BA95C9F714C0B130B3
:104A400091F00E949B25B1E008950C949B25672F5F
:104A5000782F8827B85F39F0B93FCCF386957795E2
:104A60006795B395D9F73EF49095809570956195CB
:104A70007F4F8F4F9F4F0895E89409C097FB3EF4F6
:104A800090958095709561957F4F8F4F9F4F99239B
:104A9000A9F0F92F96E9BB279395F6958795779519
:104AA0006795B795F111F8CFFAF4BB0F11F460FFD9
:104AB0001BC06F5F7F4F8F4F9F4F16C0882311F031
:104AC00096E911C0772321F09EE8872F762F05C045
:104AD000662371F096E8862F70E060E02AF09A95E0
:104AE000660F771F881FDAF7880F9695879597F9D5
:104AF000089557FD9058440F551F59F05F3F71F0CE
:104B00004795880F97FB991F61F09F3F79F0879534
:104B10000895121613061406551FF2CF4695F1DFBD
:104B200008C0161617061806991FF1CF869571054D
:104B3000610508940895E894BB2766277727CB0181
:104B400097F908950E94B5250C9426260E941826F0
:104B500038F00E941F2620F0952311F00C940F26A8
:104B60000C94152611240C949C250E94792570F331
:104B7000959FC1F3950F50E0551F629FF001729F02
:104B8000BB27F00DB11D639FAA27F00DB11DAA1F11
:104B9000649F6627B00DA11D661F829F2227B00D5E
:104BA000A11D621F739FB00DA11D621F839FA00DE9
:104BB000611D221F749F3327A00D611D231F849F39
:104BC000600D211D822F762F6A2F11249F57504090
:104BD0009AF0F1F088234AF0EE0FFF1FBB1F661F0B
:104BE000771F881F91505040A9F79E3F510580F0D4
:104BF0000C940F260C949C255F3FE4F3983ED4F36D
:104C0000869577956795B795F795E7959F5FC1F777
:104C1000FE2B880F911D9695879597F9089597F922
:104C20009F6780E870E060E008959FEF80EC089552
:104C300000240A941616170618060906089500247B
:104C40000A9412161306140605060895092E0394F5
:104C5000000C11F4882352F0BB0F40F4BF2B11F469
:104C600060FF04C06F5F7F4F8F4F9F4F0895AA1B57
:104C7000BB1B51E107C0AA1FBB1FA617B70710F047
:104C8000A61BB70B881F991F5A95A9F78095909579
:104C9000BC01CD01089597FB072E16F4009407D0B0
:104CA00077FD09D00E94372607FC05D03EF4909589
:104CB00081959F4F0895709561957F4F0895EE0FF0
:104CC000FF1F0590F491E02D099481E090E0F894A5
:104CD0000C94B226F999FECF92BD81BDF89A99271E
:104CE00080B50895A6E1B0E044E050E00C94A4261D
:104CF000A8E1B0E042E050E00C94A426262FF999F8
:104D0000FECF92BD81BDF89A019700B4021639F02A
:104D10001FBA20BD0FB6F894FA9AF99A0FBE0895FB
:104D20000396272F0E947F260E947E26252F0E9411
:104D30007F26242F0C947F260196272F0E947F2602
:104D40000C947E26DC01CB01FC01F999FECF06C054
:104D5000F2BDE1BDF89A319600B40D924150504039
:104D6000B8F70895F894FFCF7A047F048404890487
:104D70008E0493049804F00415059D04A904AD0461
:104D8000B104B504B904BD04C104C504C904CD040B
:104D9000D104D504D904DD04E104E504E904940F49
:104DA000940FEC0FEC0F30104C10C40FC40F5710C1
:104DB000C40F1F111F118A11C40FC40F9311C923EF
:104DC000EE23D224EE23D2241E243F24D224942482
:024DD000A0241D
:104DD200FFC6012808140A321E241EB41E911E5A50
:104DE2001E271E01F19593929697343536404D3623
:104DF20039A40657062106E8057B059405AD05C6CC
:024E02000500A9
:00000001FF
